:020000040000FA
:060000000A128A110C280F
:10000800FE00030EF1000A08F2000A128A111F28E6
:100018000A128A110F280A128A1160200A128A11FC
:10002800F3000A128A1161200A128A11F40083016E
:100038000A128A114B280B1C2228232844287308EB
:10004800F0007008F400831203130608F00070082B
:10005800F3007418302831283928731C34283528BF
:1000680039280130F00070088507F4183C283D282D
:100078004328F31C402841284328013085020B10EF
:1000880072088A00710E8300FE0E7E0E0900831628
:10009800031788018901831603138501FF30860041
:1000A8008B178B1581130330960083120313850178
:0C00B8005C280A128A110C28FF34FF3467
:04400E00D420FF3F7C
:00000001FF
