:020000040000FA
:060000000A128A110E280D
:10000800FE00030EF7000408F8000A08F9000A12B7
:100018008A1123280A128A111128F001F101F2012C
:10002800F301F40183120313AB01AC01AD01AE017E
:10003800AF01B001B10183010A128A11202983128C
:1000480003138C1D282829289B281412141B2D28DB
:100058002E283228941F3128322835281413941357
:10006800141683160313941A3A283B285128141996
:100078003E283F28512883120313141683160313AE
:10008800141C4728482842288312031313088800A1
:100098005330F500F50B4E288928941A5428552812
:1000A8008928141D582859288928831203131308EE
:1000B800F500F6017508B0007608B1008316031341
:1000C8001410702874088312031393007D28730892
:1000D8008312031393007D287108003A03197528C9
:1000E8007D287008003A03196628013A03196B281D
:1000F8007D28831214168316031314188428852860
:100108007F285330F500F50B8728831203138C11D1
:100118000130F0070318F10A0030F10702307006C9
:100128007104031D982899289B28F001F10179088A
:100138008A0078088400770E8300FE0E7E0E090080
:1001480083120313A600081083160313081018302F
:1001580083120313A4005E30A300A30BB128A40BE1
:10016800B1280000831603130814831203138101B6
:10017800C42865300102031CC228C328C4281F29CB
:100188000818C728C828BD288101D1286530010270
:10019800031CCF28D028D1281F29081CD428D528EB
:1001A800CA288101DE2865300102031CDC28DD280D
:1001B800DE281F290818E128E228D728A8010A12F2
:1001C8008A1166210A128A110318EB28EC28ED28F7
:1001D8001F29720883120313A30028082B3E8400EA
:1001E8002308831380000130A3002308A8070530E3
:1001F8002802031C00290129E3282D082C07A30045
:100208002E082307A4002B082407A5002508A7000B
:100218002F08270603191129122913291F292B082A
:10022800A30026088400230880002D08A3002208C4
:1002380084002308800008008316031788018901B9
:100248008316031385018601831203138601850132
:10025800831603130814CF308312031390059010EC
:100268008F018E018B170B17831603138C15003023
:100278000A128A1196210A128A110A128A11B221C7
:100288000A128A11743083120313A9002908A200E4
:1002980073300A128A11A4200A128A1101308312BB
:1002A8000313860074088500823083120313AA00A2
:1002B800DD30A900A90B5E29AA0B5E2941290A1283
:1002C8008A110E28F20183120313A10181017429F6
:1002D80065300102031C71297229742903109529BC
:1002E800081C772978296C29810181296530010248
:1002F800031C7F29802981297229081884298529C6
:100308007A2932300102F20D013083120313A00062
:100318002008A10708302102031C932994296A297F
:100328000314080083120313A00020088316031384
:10033800930036308312031394008030831603131E
:10034800940001309100871507168B170B1783123D
:1003580003138C11831603138C15080083160313DB
:08036800081481128115080040
:04400E00D420FF3F7C
:00000001FF
