:020000040000FA
:060000000A128A110C280F
:10000800FE00030EF2000A08F3000A128A111528EE
:100018000A128A110F28F501F60183010A128A11C2
:100028008B28831203138C1D1A281B286A28141284
:10003800141B1F2820282428941F23282428272815
:1000480014139413141683160313941A2C282D28AA
:10005800432814193028312843288312031314160F
:1000680083160313141C39283A28342883120313DF
:10007800130888005330F000F00B40286728941AC2
:10008800462847286728141D4A284B2867288312C2
:1000980003131308F000F1017008F5007108F60069
:1000A80083160313141083120313080801399300ED
:1000B8001416831603131418622863285D28533016
:1000C800F000F00B6528831203138C1173088A0063
:1000D800720E8300FE0E7E0E0900F400740883166B
:1000E8000313930036308312031394008030831671
:1000F8000313940001309100871507168B170B170F
:10010800831203138C11831603138C1508008B17A5
:100118000B17831603138C150130880002300A125E
:100128008A1171200A128A1198280A128A110C2839
:04400E00D420FF3F7C
:00000001FF
