:020000040000FA
:060000000A128A110E280D
:10000800FE00030EF2000408F3000A08F4000A12C6
:100018008A15E9290A128A11112883120313DB01B0
:10002800DC01DD01DE01DF01E001E101E201E301C4
:10003800E401E501E60183010A128A15E32E831221
:1000480003132D088039B2003208B7002D08B2001A
:100058003207B3003308BD00AC1F332834283528D5
:100068003D143D08031939283A2849283D0A031D3B
:100078003E283F2847280030AD000030AC00003053
:10008800AB000030AA00AC1751280030AD0000309A
:10009800AC000030AB000030AA0031088039B20053
:1000A8003208B7063108B2003207B3003308BC0083
:1000B800B01F5F28602861283C143C080319652894
:1000C800662875283C0A031D6A286B2873280030A7
:1000D800B1000030B0000030AF000030AE00B01703
:1000E8007D280030B1000030B0000030AF00003093
:1000F800AE003C0803198128822887283D08031D83
:100108008628872890280030AD000030AC000030E9
:10011800AB000030AA00832B2A08B2003208F50091
:1001280030080A128A15CF220A128A117608831219
:100138000313C3007508C2004208B200B301B4013A
:10014800B5013508BB003408BA003308B9003208D5
:10015800B8004308B200B301B401B5013508C100C5
:100168003408C0003308BF003208BE002B08B200B4
:100178003208F5002F080A128A15CF220A128A11AE
:10018800760883120313C3007508C2004208B20040
:10019800B301B401B5013208B807330803110318D5
:1001A800013E0319D828B907340803110318013E82
:1001B8000319DF28BA07350803110318013E03198C
:1001C800E628BB074308B200B301B401B501320801
:1001D800BE07330803110318013E0319F428BF07AB
:1001E800340803110318013E0319FB28C00735081A
:1001F80003110318013E03190229C1072C08B20094
:100208003208F5002E080A128A15CF220A128A111E
:10021800760883120313C3007508C2004208B200AF
:10022800B301B401B5013208B80733080311031844
:10023800013E03192029B907340803110318013EA8
:1002480003192729BA07350803110318013E0319B2
:100258002E29BB074308B200B301B401B501320827
:10026800BE07330803110318013E03193C29BF07D1
:10027800340803110318013E03194329C007350840
:1002880003110318013E03194A29C1070830B200B7
:100298000310B80DB90DBA0DBB0DB20B4C292B08C4
:1002A800B2003208F5002E080A128A15CF220A1267
:1002B8008A11760883120313C3007508C200420826
:1002C800B2004308B300B401B5013208B8073308D7
:1002D80003110318013E03197229B90734080311E1
:1002E8000318013E03197929BA07350803110318C1
:1002F800013E03198029BB072A08B2003208F5001D
:100308002F080A128A15CF220A128A117608831238
:100318000313C3007508C2004208B2004308B300C3
:10032800B401B5013208B807330803110318013EB8
:1003380003199F29B907340803110318013E03194B
:10034800A629BA07350803110318013E0319AD2978
:10035800BB070830B2000310B80DB90DBA0DBB0DBC
:10036800B20BAF292A08B2003208F5002E080A128B
:100378008A15CF220A128A11760883120313C30042
:100388007508C2004208B2004308B300B401B501C1
:100398003208B807330803110318013E0319D52999
:1003A800B907340803110318013E0319DC29BA07F9
:1003B800350803110318013E0319E329BB072B086D
:1003C800B2003208F50030080A128A15CF220A1244
:1003D8008A11760883120313C3007508C200420805
:1003E800B2004308B300B401B5013208BE073308B0
:1003F80003110318013E0319022ABF073408031129
:100408000318013E0319092AC00735080311031808
:10041800013E0319102AC1072C08B2003208F50062
:100428002F080A128A15CF220A128A117608831217
:100438000313C3007508C2004208B2004308B300A2
:10044800B401B5013208BE07330803110318013E91
:1004580003192F2ABF07340803110318013E031993
:10046800362AC007350803110318013E03193D2A2F
:10047800C1072C08B2003208F50030080A128A15A4
:10048800CF220A128A11760883120313C300750853
:10049800C2004208B2004308B300B401B5010830F5
:1004A8000310B20DB30DB40DB50DFF3E031D542A54
:1004B8003208BE07330803110318013E0319652AE1
:1004C800BF07340803110318013E03196C2AC0073B
:1004D800350803110318013E0319732AC1073808A8
:1004E800B2003908B3003A08B4003B08B500183028
:1004F8000310B50CB40CB30CB20CFF3E031D7C2AE0
:100508003208BE07330803110318013E03198D2A68
:10051800BF07340803110318013E0319942AC007C2
:10052800350803110318013E03199B2AC107083037
:10053800B2000310B80DB90DBA0DBB0DB20B9D2A50
:100548003D083C07B200B301B30D3208823EC20039
:1005580033080318013EFF3EC300CF2A0130B20022
:100568000310BE0DBF0DC00DC10DB20BB42ABB1FC9
:10057800BE2ABF2AC02A3E140130B2000310B80DAB
:10058800B90DBA0DBB0DB20BC22AFF30C207031852
:10059800C30AFF30C307C01FD22AD32AB22ABC011C
:1005A800BB1FD72AD82AF42AFF303805B200FF30FB
:1005B8003905B300FF303A05B4007F303B05B5007C
:1005C80035083404330432040319EB2AEC2AEF2AE1
:1005D800BC01BC0AF42A3E1CF22AF32AF42AEC2AAB
:1005E8003C080319F82AF92A2A2B0130BE070030E3
:1005F80003180130BF07003003180130C00700306E
:1006080003180130C107411C0A2B0B2B2A2B3E086B
:10061800B2003F08B3004008B4004108B5000130FB
:10062800B600350DB50CB40CB30CB20CB60B152BCB
:100638003508C1003408C0003308BF003208BE00C6
:100648000130C2070318C30A0030C3074308803AC1
:10065800FF0080307F02031D332BFF304202031C52
:10066800362B372B422B7F3083120313C100803087
:10067800C0000030BF000030BE00772B8312031388
:100688004308803AFF0080307F02031D4D2B013064
:1006980042020318502B512B5D2B00308312031399
:1006A800C1000030C0000030BF000030BE00B701FC
:1006B800772B831203134208B2003208BD00FF30C3
:1006C800BE05FF30BF057F30C0050030C1053D1CA9
:1006D8006E2B6F2B702BC0173D08B2000310320C25
:1006E800B3003308C1003708B2003208C10441081A
:1006F800AD004008AC003F08AB003E08AA00080067
:100708008312031323088039A8002808F50023085A
:10071800A8002807A9002908F700A21F942B952BE9
:10072800962B7714770803199A2B9B2BAB2B770AF8
:10073800031D9F2BA02BA82B0030A3000030A20084
:100748000030A1000030A000A217A301B32B003095
:10075800A3000030A2000030A1000030A00027084C
:100768008039A8002808F600760875060319BD2BFD
:10077800BE2BBF2B75172708A8002807A900290832
:10078800F600A61FC82BC92BCA2B761476080319A6
:10079800CE2BCF2BDF2B760A031DD32BD42BDC2BB0
:1007A8000030A7000030A6000030A5000030A400EB
:1007B800A617A701E72B0030A7000030A6000030DD
:1007C800A5000030A400770876020318EC2BED2B67
:1007D800312C751FF02BF12BF52B8030A800280841
:1007E800F5067708A8002808F8007608A800280861
:1007F800F7007808A8002808F6002008A8002808AC
:10080800F8002408A8002808A0007808A8002808EC
:10081800A4002108A8002808F8002508A80028082E
:10082800A1007808A8002808A5002208A800280820
:10083800F8002608A8002808A2007808A8002808B8
:10084800A6002308A8002808F8002708A8002808F8
:10085800A3007808A8002808A700F8017608A800CF
:10086800A9012908AB0077082802AA00031CAB03DA
:100878002B08803AFF0080307F02031D452C1A3078
:100888002A02031C482C492C8A2C831203132308A0
:10089800220421042004031D522C542C0130552C11
:1008A8000030A8002808F8000030A3000030A2009B
:1008B8000030A1000030A0007608A8002808F70042
:1008C800902C781C682C692C742C780883120313DC
:1008D800A8000310280C0138A9002908F800762C74
:1008E8000310F80C83120313201C7B2C7C2C7D2C0A
:1008F800F8170130A800230DA30CA20CA10CA00C22
:10090800A80B7F2C0130A8002808F7077608770283
:10091800031C8F2C902C652C751B932C942CE32C8A
:100928007708031D982C992CA42C003083120313EC
:10093800A3000030A2000030A1000030A000132E58
:10094800831203132408A007250803110318013E86
:100958000319AF2CA107260803110318013E031938
:10096800B62CA207270803110318013E0319BD2C52
:10097800A307231CC02CC12C992D781CC42CC52C72
:10098800CE2C7808A8000310280C0138A9002908E3
:10099800F800D02C0310F80C201CD32CD42CD52C08
:1009A800F8170130A800230DA30CA20CA10CA00C71
:1009B800A80BD72C0130A8002808F707992D831217
:1009C80003132308803AFF002708803A7F02031D9B
:1009D800F72C26082202031DF72C25082102031DE7
:1009E800F72C240820020318FA2CFB2C532DFF3077
:1009F800A800FF30A900FF30AA00FF30AB00240890
:100A0800AC002508AD002608AE002708AF00200876
:100A1800AC022108031C210F122D132DAD02220850
:100A2800031C220F182D192DAE022308031C230FB7
:100A38001E2D1F2DAF022C08A8072D0803182D0FF7
:100A4800262D272DA9072E0803182E0F2C2D2D2D06
:100A5800AA072F0803182F0AAB072B08A3002A0898
:100A6800A2002908A1002808A0008030A8002808B2
:100A7800F506F809F80A7808031D432D442D612D61
:100A88000130A007003003180130A1070030031817
:100A98000130A207003003180130A307612D240894
:100AA800A0022508031C250FA1022608031C260FF7
:100AB800A2022708031C270FA302230822042104EB
:100AC8002004031D682D692D952D7808031D6D2DB3
:100AD8006E2D952D0030A3000030A2000030A1003B
:100AE8000030A000132E0130A8000310A00DA10DA6
:100AF800A20DA30DA80B792DF81F832D842D852D0C
:100B08002014781C882D892D8C2D0314F80D8E2D1A
:100B18000310F80D77080319922D932D952D0130A8
:100B2800F702A21F982D992D772DF601F81F9D2DFC
:100B38009E2DAC2D78087F390319A32DA42DA72D40
:100B4800F601F60AAC2D201CAA2DAB2DAC2DA42D38
:100B580076080319B02DB12DE52D0130A00700301E
:100B680003180130A107003003180130A207003034
:100B780003180130A307231CC22DC32DE52D20081F
:100B8800A8002108A9002208AA002308AB00013008
:100B9800AC002B0DAB0CAA0CA90CA80CAC0BCD2DE2
:100BA8002B08A3002A08A2002908A1002808A000F1
:100BB800770A0319E02DE12DE52D0130A80028085A
:100BC800F707770A0319E92DEA2DEF2D7708031D9A
:100BD800EE2DEF2DFD2D0030A3000030A2000030D7
:100BE800A1000030A0007708031DFB2DFC2DFD2D72
:100BF800F501771C002E012E032EA217072E7F3039
:100C0800A8002808A2057708A8000310280CA90046
:100C18002908A300F51F112E122E132EA317080062
:100C280083120313C8003C30AD009B30AC00A530E4
:100C3800AB00E330AA004808C400C501C601C701DB
:100C48004708F8004608F7004508F6004408F5008C
:100C580001300A128A1140270A128A117808831271
:100C68000313B1007708B0007608AF007508AE002E
:100C78000A128A1123200A128A11831203132D08DB
:100C8800D2002C08D1002B08D0002A08CF00520827
:100C9800F8005108F7005008F6004F08F5000A124E
:100CA8008A15DD250A128A11750883120313C400F8
:100CB8004408CE004E08303EC4004408C9002E3017
:100CC800C4004408CA004E08C400C501C601C701D3
:100CD8004708F8004608F7004508F6004408F500FC
:100CE80001300A128A1140270A128A1178088312E1
:100CF8000313B3007708B2007608B1007508B00096
:100D08005208B7005108B6005008B5004F08B400A3
:100D18000A128A1586220A128A11831203133308CB
:100D2800D2003208D1003108D0003008CF0041305D
:100D3800AD002030AC000030AB000030AA005208F3
:100D4800B1005108B0005008AF004F08AE000A12B9
:100D58008A1123200A128A11831203132D08D20044
:100D68002C08D1002B08D0002A08CF005208F80020
:100D78005108F7005008F6004F08F5000A128A15C6
:100D8800DD250A128A11750883120313C40044086A
:100D9800CE004E08303EC4004408CB004E08C400C4
:100DA800C501C601C7014708F8004608F70045080D
:100DB800F6004408F50001300A128A1140270A1289
:100DC8008A11780883120313B3007708B2007608F3
:100DD800B1007508B0005208B7005108B6005008B5
:100DE800B5004F08B4000A128A1586220A128A1121
:100DF800831203133308D2003208D1003108D0001F
:100E08003008CF004130AD002030AC000030AB00DE
:100E18000030AA005208B1005108B0005008AF00D5
:100E28004F08AE000A128A1123200A128A1183126F
:100E380003132D08D2002C08D1002B08D0002A0853
:100E4800CF005208F8005108F7005008F6004F0884
:100E5800F5000A128A15DD250A128A11750883120F
:100E68000313C4004408CE004E08303EC4004408B2
:100E7800CC00CD014930080083120313A4002408D4
:100E88000319472F482F5C2FF81F4B2F4C2F5C2F2F
:100E98007509A6007609A7007709A8007809A900AE
:100EA800A60A0319A70A0319A80A0319A90A642F8D
:100EB8007808A9007708A8007608A7007508A60092
:100EC8007808770476047504031D6B2F6C2F752F33
:100ED8000030F8000030F7000030F6000030F50070
:100EE800FB2F9630A0002008A500872F0130A00016
:100EF8002008A50701300310A90CA80CA70CA60C04
:100F0800FF3E031D7F2FFE302905031D8C2F8D2FDB
:100F18007A2FA92F0130A0002008A5070130A607C5
:100F2800003003180130A707003003180130A80764
:100F3800003003180130A90701300310A90CA80CD0
:100F4800A70CA60CFF3E031DA12FFF302905031D8A
:100F5800AE2FAF2F8E2FBB2F0130A5020130A0007E
:100F68000310A60DA70DA80DA90DA00BB42FA81B43
:100F7800BE2FBF2FC52F023025020318C42FC52F3F
:100F8800B02F2518C82FC92FD12FFF30A605FF3045
:100F9800A7057F30A805FF30A9050310A50C250873
:100FA800A000A101A201A30118300310A00DA10DFA
:100FB800A20DA30DFF3E031DD92F2008A60421086A
:100FC800A7042208A8042308A90424080319ED2F5C
:100FD800EE2FF32FF81FF12FF22FF32FA91729085F
:100FE800F8002808F7002708F6002608F50008008A
:10100000FF1B0A2883137F1883170008840A03191B
:10101000FF0A080008308A000408840A82070034A6
:10102000533431343A34203420342034533432347D
:101030003A34203420342034533433343A340034B6
:0E104000563420340A34003456342034003440
:1013AC00831203130C0EF500750C01390800F500BF
:1013BC0083160313981CE329E429DE29750883128C
:1013CC000313990008000A128A1517220A128A15AB
:1013DC0074088A0073088400720E8300FE0E7E0E61
:1013EC0009000A128A15D6210A128A15003A031925
:1013FC00002A012AF729831203131A080800831202
:10140C0003131F083F3940389F008B170B178316A7
:10141C0003130C179F139F121F12831203131F1415
:10142C000800831203130C1F1C2A1D2A292A1E08CC
:10143C00F0001F0CF100710C0F395B3E840070083A
:10144C00831380000C130800F80083120313091592
:10145C0078080A128A1559260A128A158312031360
:10146C0009140D30F700F70B392A831203130910F6
:10147C000800F800F701781C442A452A492A750807
:10148C00F6007608F7070310F50D0310F80C780832
:10149C00031D512A522A412A77080800F6008312AC
:1014AC0003139F185A2A5B2A692A7608F500F50D52
:1014BC00F50D1F087506C33975069F00652A0000D7
:1014CC00831203139F1476085B3E080083120313E8
:1014DC00A000091120080A128A1559260A128A1529
:1014EC008312031309140630F8003030F700F70BA1
:1014FC007D2AF80B7D2A00008312031309100800C3
:10150C00803083120313B3063708A3003608A200F9
:10151C003508A1003408A0003308A7003208A60043
:10152C003108A5003008A4000A128A1184230A127B
:10153C008A15831203132308B3002208B200210872
:10154C00B1002008B000080083120313A400BE2AC7
:10155C0021087F3E0A128A156C220A128A15CE2A9D
:10156C002108BF3E0A128A156C220A128A15CE2A4D
:10157C002408A200A3012308003A0319C62ACE2A84
:10158C002208013A0319AE2A033A0319B62ACE2AC5
:10159C00080083120313A400A001A1017508F70031
:1015AC00F8017708A2007808A300241CDE2ADF2AA1
:1015BC00E52A2208A0070318A10A2308A107013075
:1015CC000310A20DA30DFF3E031DE62A0310A40C6D
:1015DC002408031DF22AF32ADB2A2108F60020082E
:1015EC00F500080083120313A501A601212B250881
:1015FC002007A3002108A2000318A20AA51F072B8D
:10160C00A203831203132208A4002408FF0023085A
:10161C0084000A128A1500200A128A150A128A15E9
:10162C002A220A128A15013083120313A507031804
:10163C00A60A0030A60725082007A3002108A2004F
:10164C000318A20AA51F2B2BA20383120313220833
:10165C00A4002408FF00230884000A128A15002025
:10166C000A128A15003A031D3C2B3D2BFD2A08005B
:10167C0000300A128A1559260A128A151A3083125A
:10168C000313A200F730A100A10B4A2BA20B4A2B8B
:10169C004F2B30300A128A156C220A128A15073029
:1016AC0083120313A2007C30A100A10B5B2BA20BB5
:1016BC005B2B000030300A128A156C220A128A1534
:1016CC000F3083120313A2004730A100A10B6C2B27
:1016DC00A20B6C2B30300A128A156C220A128A1556
:1016EC0038300A128A156C220A128A150C300A122A
:1016FC008A156C220A128A1506300A128A156C2277
:10170C000A128A15080083120313A301A401A30172
:10171C00A401B42B23087607A1007708A0000318B6
:10172C00A00AA31F9A2BA003831203132008A20064
:10173C002208FF00210884000A128A1500200A12D0
:10174C008A150A128A15DD210A128A1501308312B4
:10175C000313A3070318A40A0030A4072408803A33
:10176C00A00080302002031DBD2B78082302031833
:10177C00C02BC12BDF2B8312031323087607A10088
:10178C007708A0000318A00AA31FCD2BA003831277
:10179C0003132008A2002208FF00210884000A126B
:1017AC008A1500200A128A15003A031DDE2BDF2B46
:1017BC00902B080083120313A201F81FE62BE72BD2
:1017CC00EE2BF709F809F70A0319F80AA201A20A85
:1017DC00F61FF12BF22BF72BF509F609F50A031975
:1017EC00F60A750876040319FC2BFD2B2C2CA10191
:1017FC00A10A0B2C01300310F50DF60DFF3E031D55
:10180C00012C0130A0002008A107F61F0E2C0F2C74
:10181C00002C76087802031D152C75087702031C22
:10182C00182C192C1F2C7508F7027608031CF803CA
:10183C00F80201300310F60CF50CFF3E031D202CB2
:10184C000130A102031D2B2C2C2C0F2C2208031968
:10185C00302C312C362CF709F809F70A0319F80A41
:10186C007808F6007708F500080083120313AD0022
:10187C006430F5000030F6002D08A500A6012508FF
:10188C00F7002608F8000A128A1501250A128A1593
:10189C00750883120313A7002708AC002C08303EF0
:1018AC00A5002508A8006430A5002508F5002C0823
:1018BC000A128A153F220A128A1583120313A600F4
:1018CC002608AD020A30F5000030F6002D08A50000
:1018DC00A6012508F7002608F8000A128A1501252A
:1018EC000A128A157508303E83120313A7002708C5
:1018FC00A9000A30F5000030F6002D08A500A6015D
:10190C002508F7002608F8000A128A15E0230A12A7
:10191C008A157508303E83120313A7002708AA0006
:10192C00AB0128300800003083120313AB000030E9
:10193C00AA000030A9000030A800230822042104CA
:10194C0020040319AA2CAB2CF82CAC01AC0ABB2C30
:10195C000130F5000310A00DA10DA20DA30DF50B88
:10196C00B02C0130F5007508AC07A31FBE2CBF2CA2
:10197C00AE2C0130F5000310A80DA90DAA0DAB0D6E
:10198C00F50BC12C23082702031DD62C2208260296
:10199C00031DD62C21082502031DD62C2008240259
:1019AC00031CD92CDA2CE92C2008A4022108031CD6
:1019BC00210FA5022208031C220FA6022308031CD8
:1019CC00230FA702281401300310A30CA20CA10CA6
:1019DC00A00CFF3E031DEA2C0130AC02031DF72CBA
:1019EC00F82CBF2C2B08A3002A08A2002908A10060
:1019FC002808A000080083120313A201F61F072D6C
:101A0C00082D0F2DF509F609F50A0319F60AA2019E
:101A1C00A20AF81F122D132D1C2DF709F809F70A2D
:101A2C000319F80A0130A0002008A206A301A401A2
:101A3C00750876040319232D242D5B2DA101A10A11
:101A4C00322D01300310F50DF60DFF3E031D282D30
:101A5C000130A0002008A107F61F352D362D272DAB
:101A6C0001300310A30DA40DFF3E031D372D760886
:101A7C007802031D432D75087702031C462D472D54
:101A8C004E2D7508F7027608031CF803F802231490
:101A9C0001300310F60CF50CFF3E031D4F2D0130E9
:101AAC00A102031D5A2D5B2D362D220803195F2D23
:101ABC00602D652DA309A409A30A0319A40A2408FF
:101ACC00F6002308F5000800831203133108031DE8
:101ADC00702D712DA02D2D08B2002E08B3002F08EB
:101AEC00B4003008B50006300310B20DB30DB40DC0
:101AFC00B50DFF3E031D7A2D3508A3003408A20056
:101B0C003308A1003208A0000030A7003D30A60029
:101B1C000930A5000030A4000A128A1599240A1273
:101B2C008A15831203132008FF3E831603139900B2
:101B3C001811CE2D2D08B2002E08B3002F08B400BA
:101B4C003008B50004300310B20DB30DB40DB50D53
:101B5C00FF3E031DA92D3508A3003408A20033084D
:101B6C00A1003208A0000030A7003D30A6000930CB
:101B7C00A5000030A4000A128A1599240A128A15AD
:101B8C00831203132008FF3E8316031399001815C4
:101B9C001813981618128312031398171813181683
:101BAC0018119810831603138717071308000310D6
:101BBC00770D780D83120313A0002008A6002608C9
:101BCC00031DE92DEA2DF32D0030F8000030F7004D
:101BDC000030F6000030F500582E7508A00076088D
:101BEC00A1007708A2007808A3001F300310A30CF3
:101BFC00A20CA10CA00CFF3E031DFC2D2008A40080
:101C0C002408A500F717FF30F505FF30F605FF3067
:101C1C00F7050030F8059630A602A61F162E172ED3
:101C2C00312E2608803A973E03181D2E1E2E1F2E8D
:101C3C00EA2D01300310F80CF70CF60CF50CFF3EF6
:101C4C00031D202E0130A0002008A607031D2F2EF7
:101C5C00302E1F2E482E20302602031C362E372EF7
:101C6C00432EEA2D0130A0000310F50DF60DF70DF3
:101C7C00F80DA00B3A2E0130A6022608031D472EA4
:101C8C00482E382E250803194C2E4D2E582EF509AA
:101C9C00F609F709F809F50A0319F60A0319F70A00
:101CAC000319F80A0800F60076185D2E612E8312CF
:101CBC0003130814642E8312031308107608F5001E
:101CCC0001300310F50CFF3E031D672E75186F2EA7
:101CDC00732E831203138814762E83120313881029
:101CEC007608F50002300310F50CFF3E031D792E2B
:101CFC007518812E852E831203130815882E8312D6
:101D0C00031308117608F50003300310F50CFF3EA1
:101D1C00031D8B2E7518932E972E83120313881583
:101D2C009A2E8312031388117608F50004300310E1
:101D3C00F50CFF3E031D9D2E7518A52EA92E8312A2
:101D4C0003130816AC2E8312031308127608F50041
:101D5C0005300310F50CFF3E031DAF2E7518B72E82
:101D6C00BB2E831203138816BE2E83120313881204
:101D7C007608F50006300310F50CFF3E031DC12E4E
:101D8C007518C92ECD2E831203130817D02E83126B
:101D9C00031308137608F50007300310F50CFF3E0B
:101DAC00031DD32E7518DB2EDF2E83120313881719
:101DBC00E22E831203138813080083160313880181
:101DCC008901033083160317880089010A128A15CA
:101DDC003E230A128A150A128A1505220A128A153E
:101DEC00003083120313B0000030AF002530AE007A
:101DFC008030AD00B101B10A0A128A156A250A12A7
:101E0C008A1583120313D80100300A128A15542242
:101E1C000A128A1583120313D3005308D600A101AA
:101E2C00A10A01300A128A15AA220A128A15013057
:101E3C000A128A1554220A128A1583120313D3002C
:101E4C005308D7000130A0008030A1000A128A1577
:101E5C00F8220A128A1583120313A101A10A023077
:101E6C000A128A15AA220A128A158312031356081B
:101E7C008400831300080A128A1114260A128A1588
:101E8C0083120313D3005308DA005A08A000003061
:101E9C00A1000A128A15F8220A128A15153083122B
:101EAC000313A0008030A1000A128A15F8220A122E
:101EBC008A15831203135A08F6000030F700063017
:101ECC00D3005308F8000A128A1589230A128A15BE
:101EDC001530F6008030F700033083120313D30063
:101EEC005308F8000A128A1589230A128A158312DC
:101EFC00031357088400831300080A128A1114264E
:101F0C000A128A1583120313D3005308D400540801
:101F1C00A0000030A1000A128A15F8220A128A15B4
:101F2C00153083120313A0008030A1000A128A1509
:101F3C00F8220A128A15831203135A08F60000308D
:101F4C00F7000630D3005308F8000A128A158923CB
:101F5C000A128A151130F6008030F7000330831214
:101F6C000313D3005308F8000A128A1589230A12A6
:101F7C008A150A128A15D6210A128A15003A0319F3
:101F8C00C82FC92FE62F0A128A15F7210A128A15B3
:101F9C0083120313D3005308D9002B305906031DA9
:101FAC00D82FD92FDE2F0130D3005308D807E62FB6
:101FBC002D305906031DE32FE42FE62F0130D802F4
:101FCC008312031358080A128A153B240A128A1525
:101FDC0083120313D3005308D5005508A00000301A
:101FEC00A1000A128A15F8220A128A150A2F0A125F
:041FFC008A110E2810
:04400E00D420FF3F7C
:00000001FF
