:020000040000FA
:060000000A128A110C280F
:10000800FE00030EF1000A08F2000A128A15712E8A
:100018000A128A110F280A128A11FE270A128A1157
:10002800C9000A128A11FF270A128A11CA000A1285
:100038008A11FC270A128A11F8000A128A11FD2770
:100048000A128A11F90083133630840049300A12E3
:100058008A1534260A128A11FA0183010A128A11B2
:10006800352883160317880189018316031388012D
:1000780089011F30860081138501831203138501CE
:100088000A128A1197240A128A1100308312031364
:10009800B0000030AF004B30AE000030AD00B10111
:1000A800B10A0A128A1143260A128A1100308312F1
:1000B8000313B0000130AF008630AE00A030AD00B1
:1000C8000A128A15FE260A128A11FF3083160313B4
:1000D80092007830831203139204033092041215AD
:1000E8008B170B17831603138C14780883120313CA
:1000F800B3003308F9000608B3003308F80079188C
:10010800862887288C28781C8A288B288C28BC0964
:10011800F9188F2890289628F81C93289428962850
:10012800B901B90A791999289A28A028781D9D2813
:100138009E28A028BA01BA0AF919A328A428AA282F
:10014800F81DA728A828AA28B801B80AE530370654
:10015800031DAF28B028C228B7013608B3003308FA
:10016800F30040300A128A11D0230A128A1183122E
:10017800031336090139B3003308B6003C08031DE0
:10018800C628C7287E2AA001A00A01300A128A15AB
:1001980083260A128A11613083120313A00080306B
:1001A800A1000A128A1574270A128A110A128A15DE
:1001B8003C260A128A110330F3000030F4000A12B8
:1001C8008A154E260A128A110030F300F4000A122A
:1001D8008A15CE260A128A11730883120313B300F4
:1001E8003308FA000A128A1545260A128A110D30B8
:1001F80083120313B400FB30B300B30B0129B40B13
:10020800012983120313A001A00A02300A128A15D9
:1002180083260A128A1142299230A0008030A10058
:100228000A128A1574270A128A11A430F400803041
:10023800F500053083120313B3003308F6000A12E1
:100248008A1190270A128A1154299930A000803007
:10025800A1000A128A1574270A128A11A730F4001D
:100268008030F500063083120313B3003308F6001C
:100278000A128A1190270A128A1154297A088312BD
:100288000313B300B4013408003A03194C29542964
:100298003308003A03191029013A03192929542966
:1002A8000A128A153C260A128A110130F30000301E
:1002B800F4000A128A154E260A128A110030F30039
:1002C800F4000A128A15CE260A128A1173088312BC
:1002D8000313B3003308BE000A128A1545260A1212
:1002E8008A110D3083120313B400FB30B300B30B33
:1002F8007B29B40B7B290A128A153C260A128A111B
:100308000130F3000030F4000A128A154E260A1252
:100318008A110030F300F4000A128A15CE260A1258
:100328008A11730883120313B3003308BD000A123D
:100338008A1545260A128A110D3083120313B40058
:10034800FB30B300B30BA629B40BA6298312031301
:100358003E08B300B4013308AC003408AD000A30DD
:10036800AE000030AF003F300A128A15A8260A12E4
:100378008A1120300A128A11E7270A128A112030BE
:100388000A128A11E7270A128A113F3083120313CF
:10039800A0000030A1000A128A1574270A128A11D7
:1003A8003F30F4000030F500063083120313B30029
:1003B8003308F6000A128A1190270A128A112C3083
:1003C8000A128A1558260A128A11DF300A128A116F
:1003D800E7270A128A1143300A128A11E7270A12FC
:1003E8008A11831203133D08B300B4013308AC002B
:1003F8003408AD000A30AE000030AF003F300A12BA
:100408008A15A8260A128A113F30F4000030F50038
:10041800063083120313B3003308F6000A128A1158
:1004280090270A128A110A300A128A1558260A12C7
:100438008A11831203133D0849020318242A252A26
:10044800432A20300A128A11E7270A128A113F30FC
:1004580083120313A0000030A1000A128A15742722
:100468000A128A1125300A128A11E7270A128A11FC
:1004780020300A128A11E7270A128A114C2A9F3063
:10048800A0008030A1000A128A1574270A128A1166
:10049800831203133E084A02031C532A542A592A7A
:1004A8007A03031D582A592A5E2A3030B3003308CC
:1004B800850479284A08FF3EB300FF30031800304E
:1004C800B4003408803AB50080303502031D6E2A26
:1004D8003E083302031C712A722ACC2B7A08031DAA
:1004E800762A772ACC2BCF3083120313B300330834
:1004F80085057928A001A00A01300A128A158326E9
:100508000A128A11503083120313A0008030A10010
:100518000A128A1574270A128A1183120313A0017A
:10052800A00A02300A128A1583260A128A11831237
:1005380003133A08031DA12AA22AA72A3908031976
:10054800A62AA72AAA2ABB09B901BA013B08031996
:10055800AE2AAF2AB92A8230A0008030A1000A1240
:100568008A1574270A128A11C22A7230A0008030B4
:10057800A1000A128A1574270A128A11831203131A
:1005880038080319C82AC92A7928B801C32B78085A
:10059800B3003308F9000608B3003308F800F91867
:1005A800D62AD72ADD2AF81CDA2ADB2ADD2AB9015D
:1005B800B90A7919E02AE12AE72A781DE42AE52A06
:1005C800E72ABA01BA0AF919EA2AEB2AF12AF81D28
:1005D800EE2AEF2AF12AB801B80A3B080319F52ACE
:1005E800F62A5A2B3A080319FA2AFB2A002BBA01D1
:1005F8000130B3003308C90739080319042B052B48
:10060800082BB9010130C902A001A00A01300A1261
:100618008A1583260A128A112E3083120313A0002A
:100628008030A1000A128A1574270A128A118312CF
:100638000313A001A00A02300A128A1583260A129F
:100648008A11163083120313A0008030A1000A1209
:100658008A1574270A128A11831203134908B300F2
:10066800B4013308AC003408AD000A30AE000030E5
:10067800AF003F300A128A15A8260A128A113F30A5
:1006880083120313A0000030A1000A128A157427F0
:100698000A128A11013083120313A0008030A100CE
:1006A8000A128A1574270A128A11C32BA001A00AFC
:1006B80001300A128A1583260A128A113F308312E2
:1006C8000313A0008030A1000A128A1574270A12A9
:1006D8008A11831203133A080319732B742B792B8D
:1006E800BA010130B3003308CA07390803197D2B52
:1006F8007E2B812BB9010130CA02A001A00A023069
:100708000A128A1583260A128A11163083120313D5
:10071800A0008030A1000A128A1574270A128A11D3
:10072800831203134A08B300B4013308AC00340839
:10073800AD000A30AE000030AF003F300A128A1513
:10074800A8260A128A113F3083120313A000003032
:10075800A1000A128A1574270A128A11DF300A12B8
:100768008A11E7270A128A11193083120313A0008D
:100778008030A1000A128A1574270A128A1183127E
:10078800031338080319C92BCA2BCB2AB8017928B7
:1007980079280A128A110C2883120313A400862CC4
:1007A800A001A1011F2CF130F40074088312031377
:1007B800850505140D30F500FB30F400F40BE22B31
:1007C800F50BE22BE72BF230F400740883120313C5
:1007D800850585140D30F500FB30F400F40BF22B81
:1007E800F50BF22BF72BF430F40074088312031383
:1007F800850505150D30F500FB30F400F40B022CCF
:10080800F50B022C072CFA30F4007408831203133A
:10081800850585150D30F500FB30F400F40B122C1E
:10082800F50B122C172C013083120313A0070318A1
:10083800A10A0030A1072108803AF4008030740230
:10084800031D282C24082002031C2B2C2C2CD72B0E
:10085800962CA201A301782CFA30F40074088312B4
:100868000313850585150D30F500FB30F400F40BF6
:100878003B2CF50B3B2C402CF430F400740883120D
:100888000313850505150D30F500FB30F400F40B56
:100898004B2CF50B4B2C502CF230F40074088312BF
:1008A8000313850585140D30F500FB30F400F40BB7
:1008B8005B2CF50B5B2C602CF130F4007408831270
:1008C8000313850505140D30F500FB30F400F40B17
:1008D8006B2CF50B6B2C702C013083120313A207C1
:1008E8000318A30A0030A3072308803AF4008030D5
:1008F8007402031D812C24082202031C842C852CDD
:10090800302C962C7308F400F5017508003A031989
:100918008E2C962C7408003A0319D42B013A03192B
:100928002D2C962C080000300A128A11B9250A12BB
:100938008A111A3083120313A100F730A000A00B0C
:10094800A32CA10BA32CA82C30300A128A11E22464
:100958000A128A11073083120313A1007C30A00009
:10096800A00BB42CA10BB42C000030300A128A1151
:10097800E2240A128A110F3083120313A1004730B0
:10098800A000A00BC52CA10BC52C30300A128A116F
:10099800E2240A128A1138300A128A11E2240A1251
:1009A8008A110C300A128A11E2240A128A110630BE
:1009B8000A128A11E2240A128A110800F700831227
:1009C8000313091177080A128A11B9250A128A1124
:1009D8008312031309140630F6003030F500F50BC6
:1009E800F32CF60BF32C00008312031309100800F4
:100A0000FF1B0A2D83137F1883170008840A03191C
:100A1000FF0A080005308A000408840A82070034AF
:100A20002534203420342034203420342034203421
:100A30002034203420342034203420342034203416
:100A40002034203420342034203420342034003426
:100A500043342034203420342034203420342034D3
:100A600020342034203420342034203420342034E6
:100A700020342034203420340034203420344834CE
:100A800075346D342E3420346D3469346E346934E9
:100A90006D3461343A34203420340034203420342E
:100AA000543465346D3470342E3420344D34613414
:100AB000783469346D3461343A342034003420346D
:100AC000533465346C34653463342E3420346F34DD
:100AD0007034633469346F346E343A342034003403
:100AE000483461346C346C343A34203454346534D2
:100AF0006D3470343A342034483475346D343A34BB
:100B000000343E34543465346D3470342034203431
:100B10002034683475346D3465346434613464343D
:100B200000342034543465346D347034203420342F
:100B30003E34683475346D346534643461346434FF
:100B4000003463346C346F347334653420340034CF
:100B50006F34703465346E342034003420344E34B5
:100B60002E344134003430342C34003431342C34BD
:100B70000034F4007418BD2DC12D83120313081422
:100B8000C42D8312031308107408F30001300310FE
:100B9000F30CFF3E031DC72D7318CF2DD32D8312E9
:100BA00003138814D62D8312031388107408F300DE
:100BB00002300310F30CFF3E031DD92D7318E12DF5
:100BC000E52D831203130815E82D83120313081172
:100BD0007408F30003300310F30CFF3E031DEB2DEC
:100BE0007318F32DF72D831203138815FA2D831232
:100BF000031388117408F30004300310F30CFF3E54
:100C0000031DFD2D7318052E092E831203130816DC
:100C10000C2E8312031308127408F300053003101E
:100C2000F30CFF3E031D0F2E7318172E1B2E83127D
:100C3000031388161E2E8312031388127408F30000
:100C400006300310F30CFF3E031D212E7318292ECE
:100C50002D2E831203130817302E8312031308134B
:100C60007408F30007300310F30CFF3E031D332E0E
:100C700073183B2E3F2E831203138817422E8312C4
:100C8000031388130800831203133108031D492E30
:100C90004A2E792E2D08F4002E08F5002F08F600B4
:100CA0003008F70006300310F40DF50DF60DF70DC2
:100CB000FF3E031D532E7708A3007608A200750897
:100CC000A1007408A0000030A7003D30A600093044
:100CD000A5000030A4000A128A1128270A128A11DE
:100CE000831203132008FF3E831603139900181183
:100CF000A72E2D08F4002E08F5002F08F600300866
:100D0000F70004300310F40DF50DF60DF70DFF3E5E
:100D1000031D822E7708A3007608A2007508A100A3
:100D20007408A0000030A7003D30A6000930A500DF
:100D30000030A4000A128A1128270A128A1183128D
:100D400003132008FF3E8316031399001815181388
:100D500098161812831203139817181318161811DF
:100D600098108316031387170713080083120313C1
:100D7000AB002408A9002308A8002608F4002508D1
:100D8000F3002908F6002808F5000A128A15BA2788
:100D90000A128A11740883120313A9007308A800A9
:100DA0000130A7002708AB0728082904031DD92E06
:100DB000DA2EBD2E2B088400831380010130AB0294
:100DC0002608F4002508F3002408F6002308F5009F
:100DD0000A128A1538270A128A117308831203131C
:100DE000A7002708AA002608F4002508F300240815
:100DF000F6002308F5000A128A15BA270A128A118A
:100E0000740883120313A4007308A3000A302A0293
:100E1000031C0B2F0C2F102F0730A7002708AA0741
:100E20003030A7002708AA072A08A7002B0884004B
:100E30002708831380000130AB0223082404031D1C
:100E4000222F232FE02E0130A7002708AB07080030
:100E5000003083120313AB000030AA000030A90059
:100E60000030A80023082204210420040319392F8C
:100E70003A2F872FAC01AC0A4A2F0130F300031040
:100E8000A00DA10DA20DA30DF30B3F2F0130F30018
:100E90007308AC07A31F4D2F4E2F3D2F0130F300D9
:100EA0000310A80DA90DAA0DAB0DF30B502F2308AD
:100EB0002702031D652F22082602031D652F210826
:100EC0002502031D652F20082402031C682F692FAB
:100ED000782F2008A4022108031C210FA502220854
:100EE000031C220FA6022308031C230FA7022814A9
:100EF00001300310A30CA20CA10CA00CFF3E031D9B
:100F0000792F0130AC02031D862F872F4E2F2B081F
:100F1000A3002A08A2002908A1002808A0000800B0
:100F200083120313A301A401A301A401BB2F23086F
:100F30007407A1007508A0000318A00AA31FA12F21
:100F4000A003831203132008A2002208FF00210837
:100F500084000A128A1100250A128A110A128A15BF
:100F600058260A128A11013083120313A3070318AB
:100F7000A40A0030A4072408803AA0008030200290
:100F8000031DC42F760823020318C72FC82FE62F8E
:100F90008312031323087407A1007508A000031827
:100FA000A00AA31FD42FA003831203132008A200BA
:100FB0002208FF00210884000A128A1100250A1263
:100FC0008A11003A031DE52FE62F972F0800F6003F
:100FD00083120313091576080A128A11B9250A1219
:100FE0008A118312031309140D30F500F50BF62F47
:100FF00083120313091008001F341F3428342834C7
:101C680064008001840A0406031900340406352E32
:101C78000A128A1564260A128A1583160313111488
:101C880008000A128A1564260A128A158316031395
:101C9800111508000A128A1564260A128A15730893
:101CA8008312031393000800F30083160313981C90
:101CB8005E2E5F2E592E73088312031399000800B5
:101CC800831603131419692E6A2E642E11081F39FE
:101CD800031D6F2E702E642E0800831203138C1CB4
:101CE800762E772E7C2E0130F0007008B7078C1006
:101CF80072088A00710E8300FE0E7E0E09008312A0
:101D08000313A300972E20087F3E0A128A11E224AB
:101D18000A128A15A72E2008BF3E0A128A11E22449
:101D28000A128A15A72E2308A100A2012208003A48
:101D380003199F2EA72E2108013A0319872E033A6B
:101D480003198F2EA72E080083120313B200AD1FAC
:101D5800AE2EAF2EBF2E2D30B000320884003008D2
:101D6800831380000130B0003008B207AC09AD0918
:101D7800AC0A0319AD0A2D08A4002C08A3002F08EB
:101D8800A6002E08A50032080A128A11B6260A12E1
:101D98008A1508000A128A1564260A128A158316FB
:101DA800031391150A128A1564260A128A158312DA
:101DB80003131308F500F6017508A0007608A100C2
:101DC8000A128A1564260A128A1573037404031DFD
:101DD800EE2EEF2EF32E831603139112F62E831692
:101DE800031391161116831203132108F400200817
:101DF800F30008002830831203139400831603139A
:101E08009101831203132D08F4002E08F5002F0802
:101E1800F6003008F70002300310F40DF50DF60D4A
:101E2800F70DFF3E031D102F7708A3007608A200C8
:101E38007508A1007408A0000030A7003D30A60076
:101E48000930A5000030A4000A128A1128270A12B6
:101E58008A15831203132008FF3E83160313930089
:101E680094018715071608007308740403193D2F99
:101E78003E2F6F2F83120313A001A00A4E2F0130AB
:101E88000310F30DF40DFF3E031D442F0130F7003E
:101E98007708A007F41F512F522F432F740876029A
:101EA800031D582F73087502031C5B2F5C2F622FCC
:101EB8007308F5027408031CF603F60201300310D8
:101EC800F40CF30CFF3E031D632F0130A002031D29
:101ED8006E2F6F2F522F7608F4007508F300080054
:101EE80083120313A501A6019D2F25082007A3002F
:101EF8002108A2000318A20AA51F832FA203831298
:101F080003132208A4002408FF00230884000A12EF
:101F18008A1100250A128A150A128A11E7270A125D
:101F28008A15013083120313A5070318A60A003087
:101F3800A60725082007A3002108A2000318A20A63
:101F4800A51FA72FA203831203132208A4002408A5
:101F5800FF00230884000A128A1100250A128A1534
:101F6800003A031DB82FB92F792F080083120313E5
:101F7800A101A201730874040319C32FC42FFB2FF6
:101F8800A001A00AD22F01300310F30DF40DFF3E7B
:101F9800031DC82F0130F7007708A007F41FD52FBD
:101FA800D62FC72F01300310A10DA20DFF3E031D30
:101FB800D72F74087602031DE32F73087502031CDC
:101FC800E62FE72FEE2F7308F5027408031CF603BB
:101FD800F602211401300310F40CF30CFF3E031D2C
:101FE800EF2F0130A002031DFA2FFB2FD62F220856
:081FF800F4002108F3000800C9
:04400E00D420FF3F7C
:00000001FF
