:020000040000FA
:100000000A128A11ED2FFF1B0D2883137F18831707
:100010000008840A0319FF0A080000308A00040857
:10002000840A82070034483461346C346C343A34C6
:100030002034543465346D3470343A3420344834C8
:1000400075346D343A3400346F34703465346E3442
:100050002034003463346C346F34733465340034CA
:100574000A128A11D6220A128A118316031311143D
:1005840008000A128A11D6220A128A11831603134A
:10059400111508000A128A11D6220A128A1170084B
:1005A4008312031393000800831603131419DB2A20
:1005B400DC2AD62A11081F39031DE12AE22AD62A89
:1005C4000800F30083120313091573080A128A1131
:1005D4000D260A128A118312031309140D30F20036
:1005E400F20BF22A8312031309100800F400831299
:1005F4000313091174080A128A110D260A128A11AA
:100604008312031309140630F3003030F200F20BA6
:10061400092BF30B092B00008312031309100800A4
:10062400F800242B75087F3E0A128A11F8220A1258
:100634008A11342B7508BF3E0A128A11F8220A1255
:100644008A11342B7808F600F7017708003A031969
:100654002C2B342B7608013A0319142B033A031973
:100664001C2B342B080083120313B600B21F3B2B40
:100674003C2B4C2B2D30FD00360884007D08831361
:1006840080000130FD007D08B607B109B209B10A46
:100694000319B20A3208F9003108F8003408FB00E3
:1006A4003308FA0036080A128A119B250A128A11A5
:1006B40008000A128A11D6220A128A118316031319
:1006C40091150A128A11D6220A128A11831203136F
:1006D4001308F200F3017208F4007308F5000A121B
:1006E4008A11D6220A128A1170037104031D7B2B0E
:1006F4007C2B802B831603139112832B83160313F5
:10070400911611167508F1007408F00008002830DD
:1007140083120313940083160313910183120313AA
:100724002D08B1002E08B2002F08B3003008B40021
:1007340002300310B10DB20DB30DB40DFF3E031D15
:100744009B2B3408F3003308F2003208F10031081F
:10075400F0000030F7003D30F6000930F5000030BD
:10076400F4000A128A11C6240A128A117008FF3E84
:100774008316031393009401871507160800700865
:1007840071040319C62BC72BF62BF501F50AD52BDB
:1007940001300310F00DF10DFF3E031DCB2B013092
:1007A400F4007408F507F11FD82BD92BCA2B710854
:1007B4007302031DDF2B70087202031CE22BE32B70
:1007C400E92B7008F2027108031CF303F3020130F1
:1007D4000310F10CF00CFF3E031DEA2B0130F5026F
:1007E400031DF52BF62BD92B7308F1007208F000CA
:1007F4000800F901FA01202C79087407F70075083C
:10080400F6000318F60AF91F082CF6037608F80018
:10081400780883120313FF00770884000A128A11F0
:1008240003200A128A110A128A11E3220A128A1177
:100834000130F9070318FA0A0030FA077908740737
:10084400F7007508F6000318F60AF91F2A2CF603B8
:100854007608F800780883120313FF0077088400F1
:100864000A128A1103200A128A11003A031D3B2C32
:100874003C2CFE2B0800F501F601700871040319E5
:10088400442C452C7C2CF701F70A532C013003101F
:10089400F00DF10DFF3E031D492C0130F4007408E6
:1008A400F707F11F562C572C482C01300310F50D77
:1008B400F60DFF3E031D582C71087302031D642CB2
:1008C40070087202031C672C682C6F2C7008F202EB
:1008D4007108031CF303F302751401300310F10CC7
:1008E400F00CFF3E031D702C0130F702031D7B2C1E
:1008F4007C2C572C7608F1007508F00008000030B5
:100904000A128A110D260A128A111A30F600F830DA
:10091400F500F50B8B2CF60B8B2C000030300A12F3
:100924008A11F8220A128A110730F6007D30F50088
:10093400F50B9A2CF60B9A2C30300A128A11F822F5
:100944000A128A110F30F6004730F500F50BA82C77
:10095400F60BA82CAD2C30300A128A11F8220A1298
:100964008A1138300A128A11F8220A128A110C30BC
:100974000A128A11F8220A128A1106300A128A11FE
:10098400F8220A128A1108000030FC000030FB0033
:100994000030FA000030F900730872047104700426
:1009A4000319D52CD62C232DFD01FD0AE62C01308C
:1009B400F8000310F00DF10DF20DF30DF80BDB2C24
:1009C4000130F8007808FD07F31FE92CEA2CD92C34
:1009D4000130F8000310F90DFA0DFB0DFC0DF80BB6
:1009E400EC2C73087702031D012D72087602031D97
:1009F400012D71087502031D012D70087402031C7A
:100A0400042D052D142D7008F4027108031C710FB8
:100A1400F5027208031C720FF6027308031C730FAD
:100A2400F702791401300310F30CF20CF10CF00C02
:100A3400FF3E031D152D0130FD02031D222D232D24
:100A4400EA2C7C08F3007B08F2007A08F1007908AC
:100A5400F0000800831203133108031D322D332DD7
:100A6400602D2D08B2002E08B3002F08B400300802
:100A7400B50006300310B20DB30DB40DB50DFF3E35
:100A8400031D3C2D3508F3003408F2003308F1004F
:100A94003208F0000030F7003D30F6000930F50070
:100AA4000030F4000A128A11C6240A128A1170084E
:100AB400FF3E83160313990018118C2D2D08B200E4
:100AC4002E08B3002F08B4003008B500043003101A
:100AD400B20DB30DB40DB50DFF3E031D692D3508E0
:100AE400F3003408F2003308F1003208F00000305B
:100AF400F7003D30F6000930F5000030F4000A122A
:100B04008A11C6240A128A117008FF3E8316031341
:100B140099001815181398161812831203139817AE
:100B24001813181618119810831603138717071330
:100B3400080083120313B0007908AE007808AD00F2
:100B44007B08F1007A08F0002E08F3002D08F2006B
:100B54000A128A113D240A128A117108831203139E
:100B6400AE007008AD000130FC007C08B0072D0811
:100B74002E04031DBE2DBF2DA22D30088400831327
:100B840080010130B0027B08F1007A08F000790896
:100B9400F3007808F2000A128A11C1230A128A119A
:100BA4007008FC007C0883120313AF007B08F1007B
:100BB4007A08F0007908F3007808F2000A128A1122
:100BC4003D240A128A117108F9007008F8000A30ED
:100BD400831203132F02031CF02DF12DF52D073082
:100BE400FC007C08AF073030FC007C08AF072F08FE
:100BF400FC00300884007C08831380000130B002BC
:100C040078087904031D072E082EC52D0130FC0039
:100C14007C08B0070800F1007118112E152E8312FC
:100C240003130814182E8312031308107108F0001C
:100C340001300310F00CFF3E031D1B2E7018232EF1
:100C4400272E8312031388142A2E83120313881069
:100C54007108F00002300310F00CFF3E031D2D2E2E
:100C64007018352E392E8312031308153C2E831267
:100C7400031308117108F00003300310F00CFF3E59
:100C8400031D3F2E7018472E4B2E83120313881515
:100C94004E2E8312031388117108F00004300310E0
:100CA400F00CFF3E031D512E7018592E5D2E831239
:100CB40003130816602E8312031308127108F00040
:100CC40005300310F00CFF3E031D632E70186B2ECD
:100CD4006F2E831203138816722E83120313881245
:100CE4007108F00006300310F00CFF3E031D752E52
:100CF40070187D2E812E831203130817842E8312FD
:100D0400031308137108F00007300310F00CFF3EC2
:100D1400031D872E70188F2E932E831203138817AA
:100D2400962E831203138813080083160317880171
:100D3400890183160313880189010830860085011F
:100D44008312031385010A128A1181240A128A115B
:100D5400003083120313B0000030AF002530AE0022
:100D64008030AD00B101B10A0A128A112C250A1291
:100D74008A11003083120313B0000130AF008630B3
:100D8400AE00A030AD000A128A1189230A128A111A
:100D9400F501F50A01300A128A1112230A128A1186
:100DA4000130F4008030F5000A128A11FB230A1284
:100DB4008A110A128A11BA220A128A110330F00027
:100DC4000030F1000A128A11CC220A128A11003072
:100DD400F000F1000A128A115B230A128A117008CA
:100DE40083120313B7003708A2000A128A11C32220
:100DF4000A128A110D3083120313B800FB30B700B6
:100E0400B70B022FB80B022FF501F50A02300A12B4
:100E14008A1112230A128A118312031322088500ED
:100E2400272F1230F4008030F5000A128A11FB23B8
:100E34000A128A11372F1830F4008030F5000A1294
:100E44008A11FB230A128A11372F2208B700B8012E
:100E54003808003A03192F2F372F3708003A03199F
:100E6400132F013A03191D2F372F0A128A11BA22A0
:100E74000A128A110130F0000030F1000A128A11BE
:100E8400CC220A128A110030F000F1000A128A11F1
:100E94005B230A128A11700883120313B700370800
:100EA400A1000A128A11C3220A128A110D30831278
:100EB4000313B800FB30B700B70B5E2FB80B5E2FDF
:100EC4000A128A11BA220A128A110130F000003083
:100ED400F1000A128A11CC220A128A110030F000A1
:100EE400F1000A128A115B230A128A117008831214
:100EF4000313B7003708A0000A128A11C3220A128A
:100F04008A110D3083120313B800FB30B700B70BFE
:100F1400892FB80B892F831203132108B700B80156
:100F24003708B1003808B2000A30B3000030B4000A
:100F340023300A128A1135230A128A1120300A1228
:100F44008A11E3220A128A1120300A128A11E3223A
:100F54000A128A112330F4000030F5000A128A11B3
:100F6400FB230A128A11DF300A128A11E3220A12C1
:100F74008A1143300A128A11E3220A128A11831257
:100F840003132008B700B8013708B1003808B200CD
:100F94000A30B3000030B40023300A128A1135231A
:100FA4000A128A1120300A128A11E3220A128A11C3
:100FB4002330F4000030F5000A128A11FB230A12D0
:100FC4008A1125300A128A11E3220A128A11DB2EB1
:100FD4000A128A11002883120313A001A101A2019D
:100FE400A301A401A501A601A701A801A901AA01C1
:0C0FF400AB01AC0183010A128A11972E98
:04400E00D420FF3F7C
:00000001FF
