:020000040000FA
:060000000A128A110C280F
:10000800FE00030EF1000A08F2000A128A15242FD6
:100018000A128A110F280A128A11FB270A128A115A
:10002800C9000A128A11FC270A128A11CA000A1288
:100038008A11F9270A128A11F8000A128A11FA2776
:100048000A128A11F90083133630840049300A12E3
:100058008A15F3260A128A11FA0183010A128A11F3
:10006800352883160317880189018316031388012D
:1000780089011F30860081138501831203138501CE
:100088000A128A11CC260A128A110030831203132D
:10009800B0000030AF002530AE008030AD00B101B7
:1000A800B10A0A128A117F250A128A1100308312B6
:1000B8000313B0000130AF008630AE00A030AD00B1
:1000C8000A128A15C6270A128A11FF3083160313EB
:1000D80092007830831203139204033092041215AD
:1000E8008B170B17831603138C14780883120313CA
:1000F800B3003308F9000608B3003308F80079188C
:10010800862887288C28781C8A288B288C28BC0964
:10011800F9188F2890289628F81C93289428962850
:10012800B901B90A791999289A28A028781D9D2813
:100138009E28A028BA01BA0AF919A328A428AA282F
:10014800F81DA728A828AA28B801B80A2D3037060C
:10015800031DAF28B028C228B7013608B3003308FA
:10016800F30080300A128A117C230A128A11831242
:10017800031336090139B3003308B6003C08031DE0
:10018800C628C7282A2AA001A00A01300A128A15FF
:100198004B270A128A11613083120313A0008030A2
:1001A800A1000A128A115D270A128A110A128A15F9
:1001B800FB260A128A110330F3000030F4000A12F9
:1001C8008A150D270A128A110030F300F4000A126A
:1001D8008A1596270A128A11730883120313B3002B
:1001E8003308BE000A128A1504270A128A110D3034
:1001F80083120313B400FB30B300B30B0129B40B13
:10020800012983120313A001A00A02300A128A15D9
:100218004B270A128A1124299230A0008030A100AD
:100228000A128A115D270A128A1136299830A0000D
:100238008030A1000A128A115D270A128A11362914
:10024800831203133E08B300B4013408003A0319BB
:100258002E2936293308003A03191029013A0319BF
:100268001A2936290A128A15FB260A128A11013020
:10027800F3000030F4000A128A150D270A128A11B9
:100288000030F300F4000A128A1596270A128A1120
:10029800730883120313B3003308FA000A128A158D
:1002A80004270A128A110D3083120313B400FB309D
:1002B800B300B30B5D29B40B5D290A128A15FB261E
:1002C8000A128A110130F3000030F4000A128A156C
:1002D8000D270A128A110030F300F4000A128A1559
:1002E80096270A128A11730883120313B30033087E
:1002F800BD000A128A1504270A128A110D308312CA
:100308000313B400FB30B300B30B8829B40B88295E
:100318007A0883120313B300B4013308AC0034081D
:10032800AD000A30AE000030AF003F300A128A1527
:1003380070270A128A1120300A128A1536270A12E3
:100348008A1120300A128A1536270A128A113F307C
:1003580083120313A0000030A1000A128A115D273E
:100368000A128A11DF300A128A1536270A128A11F0
:1003780043300A128A1536270A128A118312031388
:100388003D0849020318C929CA29F9293D08B300BB
:10039800B4013308AC003408AD000A30AE000030B8
:1003A800AF003F300A128A1570270A128A112030CE
:1003B8000A128A1536270A128A113F30831203134C
:1003C800A0000030A1000A128A115D270A128A11C2
:1003D80025300A128A1536270A128A1120300A1285
:1003E8008A1536270A128A11022A9E30A000803008
:1003F800A1000A128A115D270A128A117A0883124B
:1004080003134A020318092A0A2A0F2A3030B300B4
:100418003308850479284A08FB3EB300FF300318E7
:100428000030B4003408803AB50080303502031D2E
:100438001F2A7A083302031C222A232A782BCF305A
:1004480083120313B300330885057928A001A00A95
:1004580001300A128A154B270A128A11503083126A
:100468000313A0008030A1000A128A115D270A1226
:100478008A1183120313A001A00A02300A128A15F6
:100488004B270A128A11831203133A08031D4D2AB7
:100498004E2A532A39080319522A532A562ABB09C5
:1004A800B901BA013B0803195A2A5B2A652A823026
:1004B800A0008030A1000A128A115D270A128A1151
:1004C8006E2A7230A0008030A1000A128A115D27BE
:1004D8000A128A118312031338080319742A752A19
:1004E8007928B8016F2B7808B3003308F90006089B
:1004F800B3003308F800F918822A832A892AF81CDD
:10050800862A872A892AB901B90A79198C2A8D2A53
:10051800932A781D902A912A932ABA01BA0AF919BE
:10052800962A972A9D2AF81D9A2A9B2A9D2AB8015D
:10053800B80A3B080319A12AA22A062B3A0803196C
:10054800A62AA72AAC2ABA010130B3003308C90782
:1005580039080319B02AB12AB42AB9010130C902ED
:10056800A001A00A01300A128A154B270A128A1123
:100578002E3083120313A0008030A1000A128A11C2
:100588005D270A128A1183120313A001A00A023000
:100598000A128A154B270A128A111630831203137E
:1005A800A0008030A1000A128A115D270A128A1160
:1005B800831203134908B300B4013308AC003408AC
:1005C800AD000A30AE000030AF003F300A128A1585
:1005D80070270A128A113F3083120313A0000030DB
:1005E800A1000A128A115D270A128A1101308312AA
:1005F8000313A0008030A1000A128A115D270A1295
:100608008A116F2BA001A00A01300A128A154B2704
:100618000A128A113F3083120313A0008030A10010
:100628000A128A115D270A128A11831203133A08E3
:1006380003191F2B202B252BBA010130B3003308D7
:10064800CA0739080319292B2A2B2D2BB901013088
:10065800CA02A001A00A02300A128A154B270A1200
:100668008A11163083120313A0008030A1000A12E9
:100678008A115D270A128A11831203134A08B300EC
:10068800B4013308AC003408AD000A30AE000030C5
:10069800AF003F300A128A1570270A128A113F30BC
:1006A80083120313A0000030A1000A128A115D27EB
:1006B8000A128A11DF300A128A1536270A128A119D
:1006C800193083120313A0008030A1000A128A1186
:1006D8005D270A128A118312031338080319752B30
:1006E800762B772AB801792879280A128A110C28DA
:1006F80083120313A400322CA001A101CB2BF130EB
:10070800F400740883120313850505140D30F500F1
:10071800FB30F400F40B8E2BF50B8E2B932BF23061
:10072800F400740883120313850585140D30F50051
:10073800FB30F400F40B9E2BF50B9E2BA32BF4300F
:10074800F400740883120313850505150D30F500B0
:10075800FB30F400F40BAE2BF50BAE2BB32BFA30B9
:10076800F400740883120313850585150D30F50010
:10077800FB30F400F40BBE2BF50BBE2BC32B013062
:1007880083120313A0070318A10A0030A107210848
:10079800803AF40080307402031DD42B2408200210
:1007A800031CD72BD82B832B422CA201A301242C6A
:1007B800FA30F400740883120313850585150D308B
:1007C800F500FB30F400F40BE72BF50BE72BEC2BD3
:1007D800F430F400740883120313850505150D30F1
:1007E800F500FB30F400F40BF72BF50BF72BFC2B83
:1007F800F230F400740883120313850585140D3054
:10080800F500FB30F400F40B072CF50B072C0C2C2F
:10081800F130F400740883120313850505140D30B4
:10082800F500FB30F400F40B172CF50B172C1C2CDF
:10083800013083120313A2070318A30A0030A30789
:100848002308803AF40080307402031D2D2C2408FC
:100858002202031C302C312CDC2B422C7308F400B0
:10086800F5017508003A03193A2C422C7408003A2D
:100878000319802B013A0319D92B422C0800FF1BBE
:100888004D2C83137F1883170008840A0319FF0A65
:10089800080004308A000408840A820700342534DA
:1008A80020342034203420342034203420342034A0
:1008B8002034203420342034203420342034203490
:1008C800203420342034203420342034003443347D
:1008D8002034203420342034203420342034203470
:1008E8002034203420342034203420342034203460
:1008F80020342034203400342034203448347534F3
:100908006D342E3420346D3469346E3469346D346A
:1009180061343A34203420340034203420345434C0
:1009280065346D3470342E3420344D346134783469
:1009380069346D3461343A3420340034203453340B
:1009480065346C34653463342E3420346F34703439
:10095800633469346F346E343A34203400344834A4
:1009680061346C346C343A342034543465346D3426
:1009780070343A342034483475346D343A340034A1
:100988003E34543465346D3470342034203420348B
:10099800683475346D3465346434613464340034D7
:1009A8002034543465346D347034203420343E346B
:1009B800683475346D3465346434613464340034B7
:1009C8006F34703465346E342034003463346C34DE
:1009D8006F3473346534003420344E342E3441344B
:1009E8000034F4007418F92CFD2C83120313081436
:1009F800002D8312031308107408F300013003104C
:100A0800F30CFF3E031D032D73180B2D0F2D8312BE
:100A180003138814122D8312031388107408F3002B
:100A280002300310F30CFF3E031D152D73181D2D06
:100A3800212D831203130815242D83120313081183
:100A48007408F30003300310F30CFF3E031D272D39
:100A580073182F2D332D831203138815362D831207
:100A6800031388117408F30004300310F30CFF3EDD
:100A7800031D392D7318412D452D831203130816B4
:100A8800482D8312031308127408F300053003106D
:100A9800F30CFF3E031D4B2D7318532D572D831256
:100AA800031388165A2D8312031388127408F3004F
:100AB80006300310F30CFF3E031D5D2D7318652DE2
:100AC800692D8312031308176C2D8312031308135F
:100AD8007408F30007300310F30CFF3E031D6F2D5D
:100AE8007318772D7B2D8312031388177E2D83129D
:100AF800031388130800831203133108031D852D7F
:100B0800862DB52D2D08F4002E08F5002F08F600C7
:100B18003008F70006300310F40DF50DF60DF70D4B
:100B2800FF3E031D8F2D7708A3007608A2007508E5
:100B3800A1007408A0000030A7003D30A6000930CD
:100B4800A5000030A4000A128A1164260A128A112C
:100B5800831203132008FF3E83160313990018110C
:100B6800E32D2D08F4002E08F5002F08F6003008B4
:100B7800F70004300310F40DF50DF60DF70DFF3EE8
:100B8800031DBE2D7708A3007608A2007508A100F2
:100B98007408A0000030A7003D30A6000930A50069
:100BA8000030A4000A128A1164260A128A118312DC
:100BB80003132008FF3E8316031399001815181312
:100BC8009816181283120313981718131816181169
:100BD800981083160313871707130800831203134B
:100BE800AB002408A9002308A8002608F40025085B
:100BF800F3002908F6002808F5000A128A111727B9
:100C08000A128A11740883120313A9007308A80032
:100C18000130A7002708AB0728082904031D152E53
:100C2800162EF92D2B088400831380010130AB02A6
:100C38002608F4002508F3002408F6002308F50028
:100C48000A128A11A3270A128A117308831203133E
:100C5800A7002708AA002608F4002508F30024089E
:100C6800F6002308F5000A128A1117270A128A11BA
:100C7800740883120313A4007308A3000A302A021D
:100C8800031C472E482E4C2E0730A7002708AA071A
:100C98003030A7002708AA072A08A7002B088400D5
:100CA8002708831380000130AB0223082404031DA6
:100CB8005E2E5F2E1C2E0130A7002708AB07080008
:100CC800003083120313AB000030AA000030A900E3
:100CD8000030A80023082204210420040319752EDB
:100CE800762EC32EAC01AC0A862E0130F300031019
:100CF800A00DA10DA20DA30DF30B7B2E0130F30067
:100D08007308AC07A31F892E8A2E792E0130F300B1
:100D18000310A80DA90DAA0DAB0DF30B8C2E2308FB
:100D28002702031DA12E22082602031DA12E210839
:100D38002502031DA12E20082402031CA42EA52E83
:100D4800B42E2008A4022108031C210FA5022208A2
:100D5800031C220FA6022308031C230FA702281432
:100D680001300310A30CA20CA10CA00CFF3E031D24
:100D7800B52E0130AC02031DC22EC32E8A2E2B08BD
:100D8800A3002A08A2002908A1002808A00008003A
:100D980000300A128A11F5240A128A111A308312B5
:100DA8000313A100F730A000A00BD82EA10BD82E5A
:100DB800DD2E30300A128A11DF270A128A11073015
:100DC80083120313A1007C30A000A00BE92EA10B15
:100DD800E92E000030300A128A11DF270A128A1120
:100DE8000F3083120313A1004730A000A00BFA2E86
:100DF800A10BFA2E30300A128A11DF270A128A1143
:100E080038300A128A11DF270A128A110C300A12A6
:100E18008A11DF270A128A1106300A128A11DF277F
:100E28000A128A11080083120313A101A201730890
:100E380074040319202F212F582FA001A00A2F2F47
:100E480001300310F30DF40DFF3E031D252F013073
:100E5800F7007708A007F41F322F332F242F013013
:100E68000310A10DA20DFF3E031D342F7408760256
:100E7800031D402F73087502031C432F442F4B2F6B
:100E88007308F5027408031CF603F60221140130F6
:100E98000310F40CF30CFF3E031D4C2F0130A0028D
:100EA800031D572F582F332F2208F4002108F30071
:100EB800080083120313A501A601862F2508200721
:100EC800A3002108A2000318A20AA51F6C2FA203E1
:100ED800831203132208A4002408FF0023088400B7
:100EE8000A128A1143240A128A110A128A1536270D
:100EF8000A128A11013083120313A5070318A60AE0
:100F08000030A60725082007A3002108A20003181F
:100F1800A20AA51F902FA203831203132208A4007C
:100F28002408FF00230884000A128A1143240A12A5
:100F38008A11003A031DA12FA22F622F08007308FF
:100F480074040319A82FA92FDA2F83120313A00101
:100F5800A00AB92F01300310F30DF40DFF3E031D55
:100F6800AF2F0130F7007708A007F41FBC2FBD2F63
:100F7800AE2F74087602031DC32F73087502031C75
:100F8800C62FC72FCD2F7308F5027408031CF6036C
:100F9800F60201300310F40CF30CFF3E031DCE2FB4
:100FA8000130A002031DD92FDA2FBD2F7608F400D7
:100FB8007508F3000800F700831203130911770876
:100FC8000A128A11F5240A128A11831203130914CA
:100FD8000630F6003030F500F50BF02FF60BF02F49
:100FE800000083120313091008001F341F3414343F
:020FF8002034A3
:101DE60064008001840A0406031900340406F42EF4
:101DF6000A128A1517270A128A1583160313111455
:101E060008000A128A1517270A128A158316031361
:101E1600111508000A128A1517270A128A1573085F
:101E260083120313930008008316031314191C2F3F
:101E36001D2F172F11081F39031D222F232F172F90
:101E46000800831203138C1C292F2A2F2F2F0130F1
:101E5600F0007008B7078C1072088A00710E8300B4
:101E6600FE0E7E0E0900F60083120313091576088E
:101E76000A128A11F5240A128A1583120313091409
:101E86000D30F500F50B452F8312031309100800DA
:101E960083120313A3005F2F20087F3E0A128A11C4
:101EA600DF270A128A156F2F2008BF3E0A128A11F1
:101EB600DF270A128A156F2F2308A100A201220824
:101EC600003A0319672F6F2F2108013A03194F2F84
:101ED600033A0319572F6F2F080083120313B2001A
:101EE600AD1F762F772F872F2D30B0003208840054
:101EF6003008831380000130B0003008B207AC0907
:101F0600AD09AC0A0319AD0A2D08A4002C08A300DC
:101F16002F08A6002E08A50032080A128A11F225FB
:101F26000A128A1508000A128A1517270A128A1534
:101F36008316031391150A128A1517270A128A1592
:101F4600831203131308F500F6017508A00076083E
:101F5600A1000A128A1517270A128A157303740438
:101F6600031DB62FB72FBB2F831603139112BE2F57
:101F76008316031391161116831203132108F40016
:101F86002008F300080028308312031394008316F8
:101F960003139101831203132D08F4002E08F50094
:101FA6002F08F6003008F70002300310F40DF50D87
:101FB600F60DF70DFF3E031DD82F7708A300760810
:101FC600A2007508A1007408A0000030A7003D30EB
:101FD600A6000930A5000030A4000A128A11642662
:101FE6000A128A15831203132008FF3E8316031371
:0A1FF60093009401871507160800F8
:04400E00D420FF3F7C
:00000001FF
