:020000040000FA
:060000000A128A110C280F
:10000800FE00030EF1000A08F2000A128A111528F0
:100018000A128A110F28F601F70183010A128A11C0
:100028007628831203138C1D1A281B286F28141294
:10003800141B1F2820282428941F232824282B2811
:100048001308F0007008F70014139413141683169D
:100058000313941A302831284C28141934283528C9
:100068004C28831203131308F0007008F7008C1152
:10007800141683160313141C422843283D288312A0
:100088000313130888005330F000F00B49286C283C
:10009800941A4F2850286C28141D532854286C286B
:1000A800831203131308F0007008F7008316031374
:1000B8001410780883120313930014165330F000B9
:1000C800F00B64288316031314186B286C28662811
:1000D800831203138C1172088A00710E8300FE0EBE
:1000E8007E0E09000130831603178800890101304C
:1000F80083160313850083120313850183160313E4
:100108008715071650300A128A11A3200A128A117D
:100118008B170B17831603138C150A128A11D0201C
:100128000A128A1100300A128A11BD200A128A1195
:10013800F5007508F80096280A128A110C28F300B1
:100148007308831603139300363083120313940045
:100158008030831603139400013091008715071629
:100168008B170B17831203138C11831603138C152B
:100178000800F4007408F300F30DF30D8312031361
:100188001F087306C33973069F009F149F18CD2854
:10019800CE28CA281E080800831203131F083F39F7
:1001A80040389F00831603139F139F121F12831258
:0601B80003131F140800F0
:04400E00D420FF3F7C
:00000001FF
