:020000040000FA
:060000000A128A110E280D
:10000800FE00030EF1000408F2000A08F3000A12C9
:100018008A15072F0A128A111128F601F701F8012B
:10002800F90183120313E001E101E201E301E401B4
:1000380083010A128A11812B831203133108803934
:10004800B6003608BB003108B6003607B7003708D7
:10005800C100B01F30283128322841144108031943
:10006800362837284628410A031D3B283C284428BF
:100078000030B1000030B0000030AF000030AE00FA
:10008800B0174E280030B1000030B0000030AF008B
:100098000030AE0035088039B6003608BB06350892
:1000A800B6003607B7003708BC00B41F5C285D28C7
:1000B8005E283C143C0803196228632872283C0A0D
:1000C800031D6728682870280030B5000030B40088
:1000D8000030B3000030B200B4177A280030B50001
:1000E8000030B4000030B3000030B2003C080319FF
:1000F8007E287F2884284108031D832884288D288A
:100108000030B1000030B0000030AF000030AE0069
:10011800802B2E08B6003608F40034080A128A1517
:1001280055270A128A11750883120313C700740829
:10013800C6004608B600B701B801B9013908C000C1
:100148003808BF003708BE003608BD004708B600AB
:10015800B701B801B9013908C5003808C400370823
:10016800C3003608C2002F08B6003608F40033086A
:100178000A128A1555270A128A1175088312031361
:10018800C7007408C6004608B600B701B801B9012F
:100198003608BD07370803110318013E0319D5288F
:1001A800BE07380803110318013E0319DC28BF07EE
:1001B800390803110318013E0319E328C00747084B
:1001C800B600B701B801B9013608C20737080311EC
:1001D8000318013E0319F128C3073808031103184F
:1001E800013E0319F828C407390803110318013E12
:1001F8000319FF28C5073008B6003608F40032088E
:100208000A128A1555270A128A11750883120313D0
:10021800C7007408C6004608B600B701B801B9019E
:100228003608BD07370803110318013E03191D29B5
:10023800BE07380803110318013E03192429BF0714
:10024800390803110318013E03192B29C007470871
:10025800B600B701B801B9013608C207370803115B
:100268000318013E03193929C30738080311031875
:10027800013E03194029C407390803110318013E38
:1002880003194729C5070830B6000310BD0DBE0D78
:10029800BF0DC00DB60B49292F08B6003608F4006B
:1002A80032080A128A1555270A128A11750883120C
:1002B8000313C7007408C6004608B6004708B7000D
:1002C800B801B9013608BD07370803110318013E04
:1002D80003196F29BE07380803110318013E0319D3
:1002E8007629BF07390803110318013E03197D2930
:1002F800C0072E08B6003608F40033080A128A151B
:1003080055270A128A11750883120313C700740847
:10031800C6004608B6004708B700B801B901360854
:10032800BD07370803110318013E03199C29BE07AE
:10033800380803110318013E0319A329BF07390818
:1003480003110318013E0319AA29C0070830B60093
:100358000310BD0DBE0DBF0DC00DB60BAC292E0888
:10036800B6003608F40032080A128A1555270A1210
:100378008A11750883120313C7007408C60046085B
:10038800B6004708B700B801B9013608BD073708F5
:1003980003110318013E0319D229BE0738080311B7
:1003A8000318013E0319D929BF0739080311031897
:1003B800013E0319E029C0072F08B6003608F400EB
:1003C80034080A128A1555270A128A1175088312E9
:1003D8000313C7007408C6004608B6004708B700EC
:1003E800B801B9013608C207370803110318013EDE
:1003F8000319FF29C307380803110318013E03191D
:10040800062AC407390803110318013E03190D2AE7
:10041800C5073008B6003608F40033080A128A15F2
:1004280055270A128A11750883120313C700740826
:10043800C6004608B6004708B700B801B901360833
:10044800C207370803110318013E03192C2AC307F2
:10045800380803110318013E0319332AC407390861
:1004680003110318013E03193A2AC5073008B600DC
:100478003608F40034080A128A1555270A128A1118
:10048800750883120313C7007408C6004608B6002F
:100498004708B700B801B90108300310B60DB70D09
:1004A800B80DB90DFF3E031D512A3608C20737089B
:1004B80003110318013E0319622AC3073808031100
:1004C8000318013E0319692AC407390803110318E0
:1004D800013E0319702AC5073D08B6003E08B7005B
:1004E8003F08B8004008B90018300310B90CB80C20
:1004F800B70CB60CFF3E031D792A3608C207370829
:1005080003110318013E03198A2AC3073808031187
:100518000318013E0319912AC40739080311031867
:10052800013E0319982AC5070830B6000310BD0D0F
:10053800BE0DBF0DC00DB60B9A2A41083C07B60088
:10054800B701B70D3608823EC60037080318013ECA
:10055800FF3EC700CC2A0130B6000310C20DC30D00
:10056800C40DC50DB60BB12AC01FBB2ABC2ABD2AB3
:1005780042140130B6000310BD0DBE0DBF0DC00DF5
:10058800B60BBF2AFF30C6070318C70AFF30C707D4
:10059800C41FCF2AD02AAF2ABC01C01FD42AD52A0B
:1005A800F12AFF303D05B600FF303E05B700FF30A9
:1005B8003F05B8007F304005B900390838043704D2
:1005C80036040319E82AE92AEC2ABC01BC0AF12AF4
:1005D800421CEF2AF02AF12AE92A3C080319F52AD5
:1005E800F62A272B0130C207003003180130C30751
:1005F800003003180130C407003003180130C50764
:10060800451C072B082B272B4208B6004308B700C8
:100618004408B8004508B9000130BA00390DB90CD2
:10062800B80CB70CB60CBA0B122B3908C500380831
:10063800C4003708C3003608C2000130C6070318D3
:10064800C70A0030C7074708803AFF0080307F029A
:10065800031D302BFF304602031C332B342B3F2B5A
:100668007F3083120313C5008030C4000030C300FC
:100678000030C200742B831203134708803AFF002E
:1006880080307F02031D4A2B0130460203184D2B90
:100698004E2B5A2B003083120313C5000030C400C0
:1006A8000030C3000030C200BB01742B8312031357
:1006B8004608B6003608C100FF30C205FF30C30542
:1006C8007F30C4050030C505411C6B2B6C2B6D2B8E
:1006D800C4174108B6000310360CB7003708C50028
:1006E8003B08B6003608C5044508B1004408B00008
:1006F8004308AF004208AE000800831603178801BC
:1007080089018316031385018B170B178C16831227
:100718000313A001A101A20120300A128A11DD27CA
:100728000A128A11003083120313B0000030AF00A0
:100738002530AE008030AD00B101B10A0A128A112D
:10074800AB260A128A110A307606031DAC2BAD2B94
:10075800B72B61300A128A11AC250A128A1183124A
:1007680003132408850041300A128A15D3260A1279
:100778008A110A128A15E0260A128A1183120313B3
:10078800DD005D08F9007908DD00DE015D08D300B1
:100798005E08D4000A128A110E250A128A118312E1
:1007A8000313DF005F08F8000C30A0008030A100C0
:1007B8001430DD005D08A2000A128A1186270A1289
:1007C8008A11780883120313A0000030A1001430A6
:1007D800DD005D08A2000A128A1186270A128A1112
:1007E80042300A128A15D3260A128A110A128A1569
:1007F800E0260A128A1183120313DD005D08F70050
:100808007708DD00DE015D08D3005E08D4000A1217
:100818008A110E250A128A1183120313DF005F085A
:10082800F8000130A0008030A1001430DD005D0820
:10083800A2000A128A1186270A128A1178088312DE
:100848000313A0000030A1001430DD005D08A200F1
:100858000A128A1186270A128A1114308312031386
:10086800A0008030A1001430DD005D08A2000A124B
:100878008A1186270A128A11023083120313DF00B5
:100888004530DE00A930DD00DD0B482CDE0B482C9E
:10089800DF0B482CA72B0A128A110E288312031388
:1008A800A80028080319592C5A2C6E2CA31F5D2C5C
:1008B8005E2C6E2C2009AA002109AB002209AC008D
:1008C8002309AD00AA0A0319AB0A0319AC0A0319D4
:1008D800AD0A762C2308AD002208AC002108AB0035
:1008E8002008AA002308220421042004031D7D2CCB
:1008F8007E2C872C0030A3000030A2000030A1001D
:100908000030A0000D2D9630A4002408A900992CD1
:100918000130A4002408A90701300310AD0CAC0C69
:10092800AB0CAA0CFF3E031D912CFE302D05031DB8
:100938009E2C9F2C8C2CBB2C0130A4002408A907CA
:100948000130AA07003003180130AB070030031844
:100958000130AC07003003180130AD070130031037
:10096800AD0CAC0CAB0CAA0CFF3E031DB32CFF3036
:100978002D05031DC02CC12CA02CCD2C0130A902A3
:100988000130A4000310AA0DAB0DAC0DAD0DA40BE6
:10099800C62CAC1BD02CD12CD72C02302902031822
:1009A800D62CD72CC22C2918DA2CDB2CE32CFF30C0
:1009B800AA05FF30AB057F30AC05FF30AD0503104D
:1009C800A90C2908A400A501A601A7011830031045
:1009D800A40DA50DA60DA70DFF3E031DEB2C2408A5
:1009E800AA042508AB042608AC042708AD04280887
:1009F8000319FF2C002D052DA31F032D042D052DF4
:100A0800AD172D08A3002C08A2002B08A1002A0866
:100A1800A0000800831203135308A0005408A10083
:100A2800A201A30100300A128A1152240A128A1163
:100A3800831203132308B5002208B4002108B30069
:100A48002008B2003F30B100FA30B000E130AF000A
:100A58004830AE000A128A1120200A128A11831225
:100A680003133108CB003008CA002F08C9002E082C
:100A7800C8000A128A112F260A128A118312031338
:100A88004908D4004808D3006430A0000030A10011
:100A98005408A3005308A2000A128A15BA270A129A
:100AA8008A11831203132108DC002008DB005B088D
:100AB800303ED5005508D6002E30D5005508D70051
:100AC8005C08A1005B08A0006430A2000030A3000D
:100AD8000A128A152E270A128A1183120313200874
:100AE800D3022108031CD403D4020A30A00000302A
:100AF800A1005408A3005308A2000A128A15BA27B5
:100B08000A128A11831203132108DC002008DB0073
:100B18005B08303ED5005508D8000A30A0000030E8
:100B2800A1005408A3005308A2000A128A157E27C0
:100B38000A128A11831203132108DC002008DB0043
:100B48005B08303ED5005508D900DA015630080058
:100B580083120313AB00B42D0130A6002608AB079F
:100B68002B0884002030831300060319BC2DBD2DEB
:100B7800B02D2B088400093000060319C42DC52D9B
:100B8800B02DA901AA01A8012B0884002D30000668
:100B9800031DCF2DD02DD92D0130A6002608A8077A
:100BA8000130A6002608AB070B2E2B0884002B303B
:100BB8000006031DE02DE12D0B2E0130A6002608AE
:100BC800AB070B2E831203132B0884002A08A100FD
:100BD8002908A0000A30A2000030A3000A128A15D2
:100BE8002E270A128A118313000883120313200781
:100BF800A6000030031801302107A7002608D03EC0
:100C0800A90027080318013EFF3EAA00E12D2B0882
:100C1800840000080A128A15F5260A128A11031898
:100C2800162E172EE62D83120313280803191D2EDE
:100C38001E2E2A2E2909A6002A09A700A60A03198A
:100C4800A70A2608A4002708A5002E2E2A08A50012
:100C58002908A40008000310831203134A0D4B0D42
:100C6800CC004C08D2005208031D3B2E3C2E452ECA
:100C78000030CB000030CA000030C9000030C80086
:100C8800AA2E4808CC004908CD004A08CE004B08D7
:100C9800CF001F300310CF0CCE0CCD0CCC0CFF3E78
:100CA800031D4E2E4C08D0005008D100CA17FF3043
:100CB800C805FF30C905FF30CA050030CB0596309E
:100CC800D202D21F682E692E832E5208803A973E90
:100CD80003186F2E702E712E3C2E01300310CB0C92
:100CE800CA0CC90CC80CFF3E031D722E0130CC0083
:100CF8004C08D207031D812E822E712E9A2E203089
:100D08005202031C882E892E952E3C2E0130CC00D1
:100D18000310C80DC90DCA0DCB0DCC0B8C2E01309C
:100D2800D2025208031D992E9A2E8A2E51080319B1
:100D38009E2E9F2EAA2EC809C909CA09CB09C80A1E
:100D48000319C90A0319CA0A0319CB0A080083122E
:100D580003133108031DB12EB22EE12E2D08B20067
:100D68002E08B3002F08B4003008B5000630031071
:100D7800B20DB30DB40DB50DFF3E031DBB2E3508E6
:100D8800A3003408A2003308A1003208A0000030F4
:100D9800A7003D30A6000930A5000030A4000A12C3
:100DA8008A111E270A128A11831203132008FF3E94
:100DB80083160313990018110F2F2D08B2002E085F
:100DC800B3002F08B4003008B50004300310B20D8A
:100DD800B30DB40DB50DFF3E031DEA2E3508A30073
:100DE8003408A2003308A1003208A0000030A70090
:100DF8003D30A6000930A5000030A4000A128A116F
:100E08001E270A128A11831203132008FF3E831635
:100E18000313990018151813981618128312031340
:100E28009817181318161811981083160313871794
:100E380007130800003083120313AB000030AA0028
:100E48000030A9000030A80023082204210420044F
:100E580003192F2F302F7D2FAC01AC0A402F013002
:100E6800F4000310A00DA10DA20DA30DF40B352F56
:100E78000130F4007408AC07A31F432F442F332F0D
:100E88000130F4000310A80DA90DAA0DAB0DF40B49
:100E9800462F23082702031D5B2F22082602031D65
:100EA8005B2F21082502031D5B2F20082402031C49
:100EB8005E2F5F2F6E2F2008A4022108031C210F2C
:100EC800A5022208031C220FA6022308031C230FD5
:100ED800A702281401300310A30CA20CA10CA00C2B
:100EE800FF3E031D6F2F0130AC02031D7C2F7D2FA9
:100EF800442F2B08A3002A08A2002908A1002808CB
:100F0800A000080083120313A601A701A601A701E8
:100F1800B12F26082007A4002108A3000318A30A5C
:100F2800A61F972FA303831203132308A5002508E0
:100F3800FF00240884000A128A1500200A128A1168
:100F48000A128A15E9260A128A110130831203133C
:100F5800A6070318A70A0030A7072708803AA300A6
:100F680080302302031DBA2F220826020318BD2F42
:100F7800BE2FDC2F8312031326082007A4002108A4
:100F8800A3000318A30AA61FCA2FA30383120313DF
:100F98002308A5002508FF00240884000A128A15E2
:100FA80000200A128A11003A031DDB2FDC2F8D2F37
:100FB8000800F400831603138712741DE42FE52F2D
:100FC800ED2F831203132208831603139400871549
:100FD800F52F8312031320082204831603139400A9
:0E0FE80087117408831203132104940008007B
:10100000FF1B0A2883137F1883170008840A03191B
:10101000FF0A080008308A000408840A82070034A6
:1010200020342034203450344F345434203432347B
:101030003A342034003450344F3454342034313472
:0A1040003A34203400340A3400343E
:101DA600F4007408831203139300080083160313C8
:101DB600141CDE2EDF2ED92E08000A128A15D9260B
:101DC6000A128A158312031313080800F4008316F7
:101DD6000313981CEF2EF02EEA2E740883120313B9
:101DE60099000800F500F4013A3075020318FC2E3C
:101DF600FD2E052F30307502031C022F032F052FF1
:101E0600F401F40A740C0800831203138C1E0C2FC1
:101E16000D2F252F1A08F0007008F6007608F0003E
:101E26006008613E84007008831380000A307606DD
:101E3600031D1E2F1F2F212FE001252F0130F0003B
:101E46007008E00773088A0072088400710E830028
:101E5600FE0E7E0E0900F401F50183120313201C09
:101E6600352F362F3C2F2208F4070318F50A2308CE
:101E7600F50701300310A20DA30DFF3E031D3D2FF4
:101E860001300310A10CA00CFF3E031D442F2008B7
:101E96002104031D4F2F502F302F7508A100740801
:101EA600A000080083120313A600A201A301740870
:101EB600A000A1012008A4002108A500261C642F6B
:101EC600652F6B2F2408A2070318A30A2508A3076A
:101ED60001300310A40DA50DFF3E031D6C2F03104A
:101EE600A60C2608031D782F792F612F2308F500ED
:101EF6002208F400080083120313200821040319A2
:101F0600852F862FB52FF501F50A942F0130031082
:101F1600A00DA10DFF3E031D8A2F0130F4007408A9
:101F2600F507A11F972F982F892F21082302031D3C
:101F36009E2F20082202031CA12FA22FA82F2008C3
:101F4600A2022108031CA303A30201300310A10C63
:101F5600A00CFF3E031DA92F0130F502031DB42F6F
:101F6600B52F982F2308A1002208A000080083128D
:101F76000313A501A601200821040319C32FC42FAA
:101F8600FB2FA401A40AD22F01300310A00DA10D2E
:101F9600FF3E031DC82F0130F4007408A407A11FDB
:101FA600D52FD62FC72F01300310A50DA60DFF3E46
:101FB600031DD72F21082302031DE32F2008220229
:101FC600031CE62FE72FEE2F2008A2022108031C90
:101FD600A303A302251401300310A10CA00CFF3E9D
:101FE600031DEF2F0130A402031DFA2FFB2FD62F5E
:0A1FF6002608A1002508A00008003D
:04400E00D420FF3F7C
:00000001FF
