:020000040000FA
:060000000A128A110C280F
:10000800FE00030EF2000A08F3000A128A114B28B8
:100018000A128A110F28F601F701F801F901830184
:100028000A128A11172803308316031788008901DA
:100038008B170B17831603138C1583120313A00158
:10004800A101A20125300A128A117C200A128A1104
:100058000A128A11AD200A128A1100300A128A1176
:100068009A200A128A1183120313A3002308F900A5
:1000780001300A128A119A200A128A118312031374
:10008800A3002308F80031280A128A110C288312C9
:1000980003138C1D5028512875280A128A11BC2078
:1000A8000A128A11F1007108F70041307706031D22
:1000B8005E285F28662879080A128A11CC200A125D
:1000C8008A11722842307706031D6B286C28722823
:1000D80078080A128A11CC200A128A118312031393
:1000E8008C1173088A00720E8300FE0E7E0E0900C2
:1000F800F400831603138712741D832884288C2820
:100108008312031322088316031394008715942877
:100118008312031320082204831603139400871103
:10012800740883120313210494000800F50075086D
:10013800F400F40DF40D831203131F087406C33979
:1001480074069F009F149F18AA28AB28A7281E088A
:100158000800831203131F083F3940389F00831695
:1001680003139F139F121F12831203131F140800F7
:100178000A128A11C5200A128A118312031313085E
:10018800080083160313141CCA28CB28C5280800A6
:0C019800F00070088312031393000800AD
:04400E00D420FF3F7C
:00000001FF
