:020000040000FA
:060000000A128A110C280F
:10000800FE00030EF3000A08F4000A128A11152FE5
:100018000A128A110F28F701F80183120313ED0160
:1000280083010A128A11122E8312031331088039B0
:10003800B6003608BB003108B6003607B7003708E7
:10004800C100B01F282829282A284114410803196B
:100058002E282F283E28410A031D332834283C28FF
:100068000030B1000030B0000030AF000030AE000A
:10007800B01746280030B1000030B0000030AF00A3
:100088000030AE0035088039B6003608BB063508A2
:10009800B6003607B7003708BC00B41F54285528E7
:1000A80056283C143C0803195A285B286A283C0A3D
:1000B800031D5F28602868280030B5000030B400B0
:1000C8000030B3000030B200B41772280030B50019
:1000D8000030B4000030B3000030B2003C0803190F
:1000E800762877287C284108031D7B287C288528CA
:1000F8000030B1000030B0000030AF000030AE007A
:10010800782B2E08B6003608F50034080A128A1132
:10011800AF270A128A11760883120313C7007508DD
:10012800C6004608B600B701B801B9013908C000D1
:100138003808BF003708BE003608BD004708B600BB
:10014800B701B801B9013908C5003808C400370833
:10015800C3003608C2002F08B6003608F500330879
:100168000A128A11AF270A128A117608831203131A
:10017800C7007508C6004608B600B701B801B9013E
:100188003608BD07370803110318013E0319CD28A7
:10019800BE07380803110318013E0319D428BF0706
:1001A800390803110318013E0319DB28C007470863
:1001B800B600B701B801B9013608C20737080311FC
:1001C8000318013E0319E928C30738080311031867
:1001D800013E0319F028C407390803110318013E2A
:1001E8000319F728C5073008B6003608F5003208A5
:1001F8000A128A11AF270A128A117608831203138A
:10020800C7007508C6004608B600B701B801B901AD
:100218003608BD07370803110318013E03191529CD
:10022800BE07380803110318013E03191C29BF072C
:10023800390803110318013E03192329C007470889
:10024800B600B701B801B9013608C207370803116B
:100258000318013E03193129C3073808031103188D
:10026800013E03193829C407390803110318013E50
:1002780003193F29C5070830B6000310BD0DBE0D90
:10028800BF0DC00DB60B41292F08B6003608F50082
:1002980032080A128A11AF270A128A1176088312C5
:1002A8000313C7007508C6004608B6004708B7001C
:1002B800B801B9013608BD07370803110318013E14
:1002C80003196729BE07380803110318013E0319EB
:1002D8006E29BF07390803110318013E0319752950
:1002E800C0072E08B6003608F50033080A128A112E
:1002F800AF270A128A11760883120313C7007508FC
:10030800C6004608B6004708B700B801B901360864
:10031800BD07370803110318013E03199429BE07C6
:10032800380803110318013E03199B29BF07390830
:1003380003110318013E0319A229C0070830B600AB
:100348000310BD0DBE0DBF0DC00DB60BA4292E08A0
:10035800B6003608F50032080A128A11AF270A12C9
:100368008A11760883120313C7007508C600460869
:10037800B6004708B700B801B9013608BD07370805
:1003880003110318013E0319CA29BE0738080311CF
:100398000318013E0319D129BF07390803110318AF
:1003A800013E0319D829C0072F08B6003608F50002
:1003B80034080A128A11AF270A128A1176088312A2
:1003C8000313C7007508C6004608B6004708B700FB
:1003D800B801B9013608C207370803110318013EEE
:1003E8000319F729C307380803110318013E031935
:1003F800FE29C407390803110318013E0319052A09
:10040800C5073008B6003608F50033080A128A1105
:10041800AF270A128A11760883120313C7007508DA
:10042800C6004608B6004708B700B801B901360843
:10043800C207370803110318013E0319242AC3070A
:10044800380803110318013E03192B2AC407390879
:1004580003110318013E0319322AC5073008B600F4
:100468003608F50034080A128A11AF270A128A11D1
:10047800760883120313C7007508C6004608B6003D
:100488004708B700B801B90108300310B60DB70D19
:10049800B80DB90DFF3E031D492A3608C2073708B3
:1004A80003110318013E03195A2AC3073808031118
:1004B8000318013E0319612AC407390803110318F8
:1004C800013E0319682AC5073D08B6003E08B70073
:1004D8003F08B8004008B90018300310B90CB80C30
:1004E800B70CB60CFF3E031D712A3608C207370841
:1004F80003110318013E0319822AC30738080311A0
:100508000318013E0319892AC4073908031103187F
:10051800013E0319902AC5070830B6000310BD0D27
:10052800BE0DBF0DC00DB60B922A41083C07B600A0
:10053800B701B70D3608823EC60037080318013EDA
:10054800FF3EC700C42A0130B6000310C20DC30D18
:10055800C40DC50DB60BA92AC01FB32AB42AB52AE3
:1005680042140130B6000310BD0DBE0DBF0DC00D05
:10057800B60BB72AFF30C6070318C70AFF30C707EC
:10058800C41FC72AC82AA72ABC01C01FCC2ACD2A43
:10059800E92AFF303D05B600FF303E05B700FF30C1
:1005A8003F05B8007F304005B900390838043704E2
:1005B80036040319E02AE12AE42ABC01BC0AE92A24
:1005C800421CE72AE82AE92AE12A3C080319ED2A0D
:1005D800EE2A1F2B0130C207003003180130C30771
:1005E800003003180130C407003003180130C50774
:1005F800451CFF2A002B1F2B4208B6004308B700F2
:100608004408B8004508B9000130BA00390DB90CE2
:10061800B80CB70CB60CBA0B0A2B3908C500380849
:10062800C4003708C3003608C2000130C6070318E3
:10063800C70A0030C7074708803AFF0080307F02AA
:10064800031D282BFF304602031C2B2B2C2B372B8A
:100658007F3083120313C5008030C4000030C3000C
:100668000030C2006C2B831203134708803AFF0046
:1006780080307F02031D422B013046020318452BB0
:10068800462B522B003083120313C5000030C400E0
:100698000030C3000030C200BB016C2B831203136F
:1006A8004608B6003608C100FF30C205FF30C30552
:1006B8007F30C4050030C505411C632B642B652BB6
:1006C800C4174108B6000310360CB7003708C50038
:1006D8003B08B6003608C5044508B1004408B00018
:1006E8004308AF004208AE000800831203134F0806
:1006F8008039D0005008D9004F08D0005007D100E9
:100708005108E000CE1F892B8A2B8B2B60146008C0
:1007180003198F2B902BA02B600A031D942B952B6C
:100728009D2B0030CF000030CE000030CD000030CF
:10073800CC00CE17CF01A82B0030CF000030CE0060
:100748000030CD000030CC004B088039D000500874
:10075800D9064B08D0005007D1005108E100CA1F44
:10076800B62BB72BB82B611461080319BC2BBD2B12
:10077800CD2B610A031DC12BC22BCA2B0030CB0025
:100788000030CA000030C9000030C800CA17CB01C9
:10079800D52B0030CB000030CA000030C900003033
:1007A800C8004B084A0449044804031DDC2BDD2B10
:1007B800F62B0030CF000030CE000030CD000030E6
:1007C800CC008030CE047F30CF045908D0005008C8
:1007D800CF044F08CB004E08CA004D08C9004C088A
:1007E800C800552D6008031DFA2BFB2B042C003084
:1007F800CB000030CA000030C9000030C800552DB9
:100808006008D000D1015108D30061085002D2001D
:10081800031CD30352087F3EDA0053080318013E35
:10082800003EDB004F08D8004E08D7004D08D60020
:100838004C08D5000030CF000030CE000030CD008D
:100848000030CC000030DF000030DE000030DD007A
:100858000030DC00E1017A2C61080319342C352CB6
:10086800552C0130D0000310D50DD60DD70DD80D5D
:10087800D00B372C0130D0000310CC0DCD0DCE0D90
:10088800CF0DD00B402CDF1F4A2C4B2C4C2C4C147A
:100898000130D0000310DC0DDD0DDE0DDF0DD00BB7
:1008A8004E2C4B085802031D632C4A085702031D9F
:1008B800632C49085602031D632C48085502031C83
:1008C800662C672C762C5F174808D5024908031C4C
:1008D800490FD6024A08031C4A0FD7024B08031CCB
:1008E8004B0FD8020130D0005008E1071A306102DE
:1008F800031C7F2C802C302C5808570456045504B0
:100908000319872C882CA72C5C14A72C0130D00045
:100918000310CC0DCD0DCE0DCF0DD00B8C2CDF1FC1
:10092800962C972C982C4C140130D0000310DC0D19
:10093800DD0DDE0DDF0DD00B9A2CFF30DA07031822
:10094800DB0AFF30DB07CE1FAA2CAB2C8A2CE10177
:10095800DF1FAF2CB02CCC2CFF305C05D000FF3053
:100968005D05D100FF305E05D2007F305F05D30002
:1009780053085204510450040319C32CC42CC72C27
:10098800E101E10ACC2C4C1CCA2CCB2CCC2CC42C5D
:1009980061080319D02CD12C022D0130CC0700306E
:1009A80003180130CD07003003180130CE0700309E
:1009B80003180130CF074F1CE22CE32C022D4C0802
:1009C800D0004D08D1004E08D2004F08D3000130A6
:1009D800D400530DD30CD20CD10CD00CD40BED2C6D
:1009E8005308CF005208CE005108CD005008CC0063
:1009F8000130DA070318DB0A0030DB075B08803AAE
:100A0800FF0080307F02031D0B2DFF305A02031CAC
:100A18000E2D0F2D1D2DFF3083120313DA00003029
:100A2800DB000030CF000030CE000030CD000030B9
:100A3800CC00831203135B08803AFF0080307F02EA
:100A4800031D282D01305A0203182B2D2C2D392D6A
:100A580083120313DA01DB010030CF000030CE002F
:100A68000030CD000030CC00D901831203135A089E
:100A7800D0005008E000601C422D432D452DCE17B4
:100A8800492D7F30D0005008CE056008D0000310F3
:100A9800500CD1005108CF005908D0005008CF049D
:100AA800ED2B080083120313A800280803195D2DF5
:100AB8005E2D722DA31F612D622D722D2009AA00B3
:100AC8002109AB002209AC002309AD00AA0A0319C9
:100AD800AB0A0319AC0A0319AD0A7A2D2308AD0035
:100AE8002208AC002108AB002008AA002308220431
:100AF80021042004031D812D822D8B2D0030A3009D
:100B08000030A2000030A1000030A000112E963065
:100B1800A4002408A9009D2D0130A4002408A907D9
:100B280001300310AD0CAC0CAB0CAA0CFF3E031D3E
:100B3800952DFE302D05031DA22DA32D902DBF2D23
:100B48000130A4002408A9070130AA0700300318BF
:100B58000130AB07003003180130AC070030031830
:100B68000130AD0701300310AD0CAC0CAB0CAA0C76
:100B7800FF3E031DB72DFF302D05031DC42DC52DC8
:100B8800A42DD12D0130A9020130A4000310AA0D13
:100B9800AB0DAC0DAD0DA40BCA2DAC1BD42DD52DB2
:100BA800DB2D023029020318DA2DDB2DC62D29187A
:100BB800DE2DDF2DE72DFF30AA05FF30AB057F3096
:100BC800AC05FF30AD050310A90C2908A400A50148
:100BD800A601A70118300310A40DA50DA60DA70D99
:100BE800FF3E031DEF2D2408AA042508AB042608A0
:100BF800AC042708AD0428080319032E042E092E77
:100C0800A31F072E082E092EAD172D08A3002C08A8
:100C1800A2002B08A1002A08A00008000A128A11C5
:100C280085270A128A11831203139F142030831612
:100C38000313A000A00B1E2E0000831203136D08DF
:100C480078060319282E292E912E6D088316031372
:100C5800A0002008F800831203136D0883160313FD
:100C6800A000A101A201A301230883120313A3007A
:100C780083160313220883120313A2008316031397
:100C8800210883120313A10083160313200883127B
:100C98000313A00000300A128A1156250A128A117D
:100CA800831203132308B5002208B4002108B300F7
:100CB8002008B2004530B1009C30B0004030AF0091
:100CC8000030AE000A128A1118200A128A11831203
:100CD80003133108CF003008CE002F08CD002E08AE
:100CE800CC004330CB007F30CA000030C900003050
:100CF800C8000A128A1179230A128A11831203136F
:100D08004B08E5004A08E4004908E3004808E20007
:100D18000A128A1199260A128A11831203136D087E
:100D28008600172E0A128A110C2803108312031347
:100D3800640D650DE6006608EC006C08031DA52E21
:100D4800A62EAF2E0030E5000030E4000030E300AE
:100D58000030E200142F6208E6006308E700640828
:100D6800E8006508E9001F300310E90CE80CE70CFF
:100D7800E60CFF3E031DB82E6608EA006A08EB0081
:100D8800E417FF30E205FF30E305FF30E4050030EB
:100D9800E5059630EC02EC1FD22ED32EED2E6C0812
:100DA800803A973E0318D92EDA2EDB2EA62E013074
:100DB8000310E50CE40CE30CE20CFF3E031DDC2EF3
:100DC8000130E6006608EC07031DEB2EEC2EDB2E47
:100DD800042F20306C02031CF22EF32EFF2EA62EB9
:100DE8000130E6000310E20DE30DE40DE50DE60B1E
:100DF800F62E0130EC026C08031D032F042FF42E8D
:100E08006B080319082F092F142FE209E309E409D5
:100E1800E509E20A0319E30A0319E40A0319E50AD2
:100E28000800831203130C1F1A2F1B2F262F0A12D8
:100E38008A11F2270A128A11F20072088312031328
:100E4800ED000C138C1D292F2A2F7E2F1412141B32
:100E58002E2F2F2F332F941F322F332F3A2F130873
:100E6800F2007208F7001413941314168316031370
:100E7800941A3F2F402F5B2F1419432F442F5B2FB9
:100E8800831203131308F2007208F7008C1114166A
:100E980083160313141C512F522F4C2F8312031344
:100EA800130888005330F200F20B582F7B2F941A46
:100EB8005E2F5F2F7B2F141D622F632F7B2F8312D2
:100EC80003131308F2007208F700831603131410B3
:100ED800831203136D08930014165330F200F20BBB
:100EE800732F8316031314187A2F7B2F752F8312F1
:100EF80003138C1174088A00730E8300FE0E7E0E95
:100F0800090003308316031788008901033083160C
:100F18000313850086018701880189018312031361
:100F28001F083F3940389F00C3309F051F140C131A
:100F380000300A128A11D8270A128A118B170B1748
:100F4800831603130C178312031385018601870187
:100F580088018901080083120313A600A201A301D6
:100F68007508A000A1012008A4002108A500261CDE
:100F7800BE2FBF2FC52F2408A2070318A30A2508D0
:100F8800A30701300310A40DA50DFF3E031DC62FB6
:100F98000310A60C2608031DD22FD32FBB2F23081E
:100FA800F6002208F5000800F500750883160313FB
:100FB8009300363083120313940080308316031392
:100FC800940001309100871507168B170B178312B1
:100FD80003138C11831603138C1508008312031353
:0C0FE8001E08F0007008F10071080800FD
:04400E00F43FFF3F3D
:00000001FF
