:020000040000FA
:060000000A128A11FC2F18
:100D7C000A128A11DA260A128A1183160313111425
:100D8C0008000A128A11DA260A128A118316031332
:100D9C00111508000A128A11DA260A128A11700833
:100DAC008312031393000800831603131419DF2E08
:100DBC00E02EDA2E11081F39031DE52EE62EDA2E51
:100DCC0008000A128A11DA260A128A1183160313F2
:100DDC0091150A128A11DA260A128A118312031348
:100DEC001308F200F3017208F4007308F5000A12FC
:100DFC008A11DA260A128A1170037104031D072F57
:100E0C00082F0C2F8316031391120F2F8316031325
:100E1C00911611167508F1007408F00008002830BE
:100E2C00831203139400831603139101831203138B
:100E3C002008A4002108A5002208A6002308A7006A
:100E4C0002300310A40DA50DA60DA70DFF3E031D2A
:100E5C00272F2708F3002608F2002508F1002408A4
:100E6C00F0000030F7007A30F6001230F500003058
:100E7C00F4000A128A1196270A128A117008FF3E92
:100E8C008316031393009401871507160800831625
:100E9C000317880189018316031386018312031338
:100EAC0086010030A3000130A2008630A100A030E2
:100EBC00A0000A128A1115270A128A110A128A1125
:100ECC00BE260A128A115130F0000030F1000A12CD
:100EDC008A11D0260A128A110030F000F1000A1291
:100EEC008A11E7260A128A117008831203138600EE
:100EFC000A128A11C7260A128A11023083120313AE
:100F0C00AA000430A900B930A800A80B8B2FA90B9C
:100F1C008B2FAA0B8B2F922F642F0A128A11002869
:100F2C000030FC000030FB000030FA000030F9000B
:100F3C0073087204710470040319A52FA62FF32FE4
:100F4C00FD01FD0AB62F0130F8000310F00DF10D74
:100F5C00F20DF30DF80BAB2F0130F8007808FD07FC
:100F6C00F31FB92FBA2FA92F0130F8000310F90D78
:100F7C00FA0DFB0DFC0DF80BBC2F73087702031D4B
:100F8C00D12F72087602031DD12F71087502031D33
:100F9C00D12F70087402031CD42FD52FE42F7008A6
:100FAC00F4027108031C710FF5027208031C720F16
:100FBC00F6027308031C730FF70279140130031047
:100FCC00F30CF20CF10CF00CFF3E031DE52F01307D
:100FDC00FD02031DF22FF32FBA2F7C08F3007B08C0
:100FEC00F2007A08F1007908F000080083010A1277
:040FFC008A114D2FDA
:04400E00D420FF3F7C
:00000001FF
